:100DC400C2AF120BF9120E4D120DE4D2AF120E2B5C
:100DD400120D40120E6A50F8120B72120CE180F0E0
:0D0E5D00323032363030303030303030003E
:100E2B00E4F54DF549F54EF54AD204F54BF54C0278
:020E3B00091F8D
:100D40007F357D367B37120DFE5015AB37AD36AF94
:100D500035120E3DE4F54DF549F54BF54C12091FE2
:100D6000120E77E433601BE54D7006300403120E5B
:100D7000A5E530700DE525B52608E531B53203123D
:020D80000E9BC8
:010D8200224E
:100CE100EF6003120AD1054CE54C7002054BE54D4E
:100CF100B40125900E61E493601EC3E54C9446E572
:100D01004B94004013E4F54BF54C054AE54AD39466
:100D1100084029E4F54A8024E54D7020E549701C1E
:100D2100C3E54C942CE54B94014011E4F54BF54C93
:0F0D3100E54E70047F0180027F008F4E02091F84
:100AD1008F35300003020EACE4F54BF54CE53530B3
:100AE100E03AE5496021E54D700AE549C3940350B8
:100AF10003054922E54DB4020AE549C394025003B6
:100B0100054922E4F54922054DE54DD39402400300
:100B1100E4F54DE54D64017057F54A22E53530E1C4
:100B210027E549700CE54D6003B402057549018064
:100B310017E5496013E54D7008FDAF49120C6D8052
:100B410007E4FDAF49120D83E53530E20BE549704D
:100B510007E54D7003B20422E535540C6012E549F6
:100B6100600EE54D7D01AF497003020C6D120D83DE
:010B71002261
:10091F00E4FF7E01E54D64017027E54A900E5D937B
:10092F0024D0F538E54AA39324D0F539E54AA393AB
:10093F0024D0F53AE54AA39324D0F53BE4FE02090F
:10094F00F0E54D706AE54964036025E5497004E5FB
:10095F004E701DE52575F00A84F538E52575F00A0A
:10096F008485F039E53175F00A84F53AE531801B5D
:10097F00E53175F00A84F538E53175F00A8485F0B4
:10098F0039E53075F00A84F53AE53075F00A84855B
:10099F00F03BE54970047D0280027D01AE05E5491B
:1009AF00B401047F03803AE54960367F0C8032E55D
:1009BF002675F00A84F538E52675F00A8485F03936
:1009CF00E53275F00A84F53AE53275F00A8485F060
:1009DF003BE549B401047F038007E549B402027F78
:1009EF000C853B3F8F408E41AB3AAD39AF38020E8D
:0109FF0017E0
:0B0E90003F065B4F666D7D077F6F0023
:100BF90075A0FFD2C2D2C1D2B7D2B6D2C4D2C5D2A1
:100C0900B5E4F5957596FF53B11F43B2E053B3C9E7
:100C190043B436538FFE75250CF531F530F533F5B0
:100C29003475260775321EC200F52BF52CF52F7584
:100C3900270A75280A75290A752A0AF521F523F55F
:100C490022F52DF52ED201F524C202C203C28C432E
:100C59008E805389F0758ACD758CD4C28DD2B9D264
:040C6900A9D28C225E
:0D0E6A00200202C322C2AFC202D2AFD322C7
:0D0E7700200302C322C2AFC203D2AFD322B8
:100E1700C2AF8F278D288B29853F2A8540218541A1
:040E270023D2AF2201
:100E3D00C2AF8F258D318B30E4F533F534D2AF222F
:100C6D00C2AFED6033BF010F0525AE25EEC394185D
:100C7D00405AE4F5258055BF020F0531AE31EEC364
:100C8D00943C4048E4F53180430530AE30EEC394DA
:100C9D003C4039E4F5308034BF0110E52570047E09
:100CAD00178004E52514FE8E258021BF0210E53145
:100CBD0070047F3B8004E53114FF8F31800EE530E9
:100CCD0070047F3B8004E53014FF8F30E4F533F57D
:040CDD0034D2AF223C
:100D8300ED601DBF010D0526E526C394184031E42F
:100D9300F526220532E532C3943C4024E4F53222A1
:100DA300BF010FE52670047F178004E52614FF8F2B
:100DB3002622E53270047F3B8004E53214FF8F3234
:010DC300220D
:0A0E9B00E4F52FF52BF52CD2002210
:070EA500200003752F282235
:050EAC00C200D2B522D6
:03000B00020800E8
:0B080000C0E0C083C082C0D075D008EB
:10080B00D2C2D2C1D2B7D2B675A0FF74272522F8B7
:10081B00E6900E9093FD20011B7E007401A8220828
:10082B008005C333CE33CED8F9FFAC21ECFBEF5BA5
:10083B0060027D00EDF4F5A0E5227004C2C28014C5
:10084B00E522B40104C2C1800BE522B40204C2B795
:10085B008002C2B60522E522C39404400375220030
:10086B00052EE52E7002052DC394F4E52D94014061
:10087B0008752D00752E00B201E523B40104C2C426
:10088B008012E523B4020B300103C38001D392C461
:10089B008002D2C40534E53470020533AE33C39401
:1008AB00E8EE9403402C753300753400D203053009
:1008BB00AF30EF943C401B7530000531AF31EF94F6
:1008CB003C400F7531000525AF25EF94184003759B
:1008DB002500300019B2B5052CE52C7002052BAEA6
:1008EB002BC39430EE94754014120EAC800FE52F91
:1008FB006009B2B5D52F06D2B58002D2B50524E575
:0B090B0024C3940A4005752400D202AA
:09091600D0D0D082D083D0E032B1
:100E4D00D293D294D2955391C75392C7E4F51822F9
:100B7200E4FF2093010F20940343070220950343CF
:100B82000704E4FEFDA8057401088002C333D8FC03
:100B9200FC5518FBEF5CFAB50304741C8028741C26
:100BA2002DF806E6C394034021741C2DF8E4F6EAFE
:100BB200600EEC421874192DF8E4F6EC4206800A35
:100BC200ECF4521874192DF8E4F6ED6021E5185C86
:100BD200601C74192DF806E6C3943C4011BC040550
:100BE2004306088003EC420674192DF876300DEDA9
:060BF20064037091AF06E0
:010BF80022DA
:100DE400E4F545C205759850438E01438E0475D7CA
:0A0DF400E875D6FF438E10D2AC2242
:100DFE00A807200502C322C2AFA644A805A643A891
:090E0E0003A642C205D2AFD322B3
:03002300020A00CE
:090A0000C0E0C0F0C0D075D010B8
:100A0900209803020AC5C298AF99E545700EEF64B4
:100A1900016003020AC5754501020AC5E545D3947B
:100A290003500DAE4574452EF8A6170545020AC5B3
:100A3900754500EF64AA6003020AC5E546540FD361
:100A490094095078E546C4540F9409506FE547540A
:100A59000F94095067E547C4540F9409505EE5485F
:100A6900540F94095056E548C4540F9409504DE564
:100A790046C4540F75F00AA4FFE546540F2FFFE54D
:100A890047C4540F75F00AA4FEE547540F2EFEE53E
:100A990048C4540F75F00AA4FDE548540F2DFDEF25
:100AA900C394185017EEC3943C5011EDC3943C50B5
:100AB9000B8F448E438D42D205759906309902C237
:010AC9009993
:070ACA00D0D0D0F0D0E032E3
:03000000020E8469
:0C0E8400787FE4F6D8FD75814E020DC4A5
:00000001FF
