:100EAD00C2AF120CB3120F80120ECDD2AF120F5E65
:100EBD00120E03120F9D50F8120C2C120DA680F07D
:0D0F900032303234333631303031333500F9
:100F5E00E4F55AF556F55BF557D206F558F55902F4
:020F6E000A86F1
:100E03007F3A7D3B7B3C120F1C500FAB3CAD3BAF9D
:100E13003A120F70E4F55A120A807F3D7D3A7B3B0C
:100E2300120F035010AB3BAD3AAF3D120F35755A5D
:100E330002E4120A80120FAAE433601AE55A70061C
:100E4300300603120FF5E533700CAD37AF28120EE1
:060E5300E95003120FDB61
:010E59002276
:100DA600EF6003120B700559E55970020558E55AB4
:100DB600B40123E55720E71EC3E5599446E5589448
:100DC600004013E4F558F5590557E557D394084004
:100DD60029E4F5578024E55A7020E556701CC3E5D2
:100DE60059942CE55894014011E4F558F559E55B02
:0D0DF60070047F0180027F008F5B020A867F
:100B70008F3A300003020FFCE4F558F559E53A309E
:100B8000E03AE5566021E55A700AE556C3940350F1
:100B900003055622E55AB4020AE556C394025003EF
:100BA000055622E4F55622055AE55AD3940240032D
:100BB000E4F55AE55A64017072F55722E53A30E1DE
:100BC00027E556700CE55A6003B40205755601809E
:100BD00017E5566013E55A7008FDAF56120D3280C6
:100BE00007E4FDAF56120E5AE53A30E226E556709C
:100BF00022E55A7003B20622E55AB4010DE55730DA
:100C0000E704E4F5572275578822E55A6402701B01
:100C1000020FB7E53A540C6012E556600EE55A7DB6
:0C0C200001AF567003020D32120E5A2272
:060A8000F556F558F5598A
:100A8600E4F542754301E55A64017028E557547F41
:100A9600FF900F909324D0F53EEFA39324D0F53F1B
:100AA600EFA39324D0F540EFA39324D0F541E4F5CA
:100AB60043020B5EE55A7066E55664036025E5560B
:100AC6007004E55B701DE52875F00A84F53EE5289F
:100AD60075F00A8485F03FE53775F00A84F540E540
:100AE60037801BE53775F00A84F53EE53775F00A61
:100AF6008485F03FE53375F00A84F540E53375F0FB
:100B06000A8485F041E55670047F0280027F018FDA
:100B160043E556B401028033E556603C8037120F38
:100B2600E58F44120FEDE54475F00A84F53EE54481
:100B360075F00A8485F03FEF75F00A84F540EF758D
:100B4600F00A8485F041E556B40105754203800834
:100B5600E556B4020375420C8541488542498543F2
:0A0B66004AAB40AD3FAF3E020F4A1C
:0B0FD0003F065B4F666D7D077F6F00E2
:100CB30075A0FFD2C2D2C1D2B7D2B6D2C4D2C5D2E6
:100CC300B5E4F5957596FF53B11F43B2E053B3C92D
:100CD30043B436538FFE75280CF537F533F538F5E5
:100CE30039752308F53475240CF535752510F5365B
:100CF300F52DC200F52EF52FF53275290A752A0A4E
:100D0300752B0A752C0AF521F526F522F530F531F8
:100D1300D201F527C202C203C28C438E805389F0ED
:0F0D2300758ACD758CD4C28DD2B9D2A9D28C224B
:0D0F9D00200202C322C2AFC202D2AFD32293
:0D0FAA00200302C322C2AFC203D2AFD32284
:100F4A00C2AF8F298D2A8B2B85482C854921854A4A
:040F5A0026D2AF22CA
:100F7000C2AF8F288D378B33E4F538F539D2AF22E5
:100D3200C2AFED6033BF010F0528AE28EEC3941891
:100D4200405AE4F5288055BF020F0537AE37EEC38F
:100D5200943C4048E4F53780430533AE33EEC39408
:100D62003C4039E4F5338034BF0110E52870047E3D
:100D7200178004E52814FE8E288021BF0210E53773
:100D820070047F3B8004E53714FF8F37800EE53314
:100D920070047F3B8004E53314FF8F33E4F538F5AC
:040DA20039D2AF2271
:100E5A00ED6027BF01107423252DF806E6C3941808
:100E6A0040407423800E7434252DF806E6C3943C62
:100E7A0040307434252DF8E4F622BF01137423257B
:100E8A002DF8E6FF70047F178003EF14FFA60722F0
:100E9A007434252DF8E6FF70047F3B8003EF14FFBE
:030EAA00A6072276
:100F3500EFC39403500E74232FF8A60574342FF8CD
:050F4500A6038F2D2220
:0D0FB700052DE52DC394034003E4F52D2224
:080FE5007423252DF8E6FF221C
:080FED007434252DF8E6FF2203
:100EE900E4FE74232EF8E6B5070A74342EF8E6B545
:090EF9000502D3220EBE03EAC378
:010F020022CC
:0A0FDB00E4F532F52EF52FD20022C6
:070FF50020000375322822E1
:050FFC00C200D2B52285
:03000B0002096186
:0B096100C0E0C083C082C0D075D00889
:10096C00D2C2D2C1D2B7D2B675A0FF74292522F853
:10097C00E6900FD093FD20011B7E007401A8220885
:10098C008005C333CE33CED8F9FFAC21ECFBEF5B43
:10099C0060027D00EDF4F5A0E5227004C2C2801463
:1009AC00E522B40104C2C1800BE522B40204C2B733
:1009BC008002C2B60522E522C394044003752200CE
:1009CC000531E53170020530C394F4E530940140F3
:1009DC0008753000753100B201E526B40104C2C4BB
:1009EC008012E526B4020B300103C38001D392C4FC
:1009FC008002D2C40539E53970020538AE38C3948B
:100A0C00E8EE9403402C753800753900D203053399
:100A1C00AF33EF943C401B7533000537AF37EF9481
:100A2C003C400F7537000528AF28EF94184003752C
:100A3C002800300019B2B5052FE52F7002052EAE37
:100A4C002EC39430EE94754014120FFC800FE532D7
:100A5C006009B2B5D53206D2B58002D2B50527E50C
:0B0A6C0027C3940A4005752700D20242
:090A7700D0D0D082D083D0E0324F
:100F8000D293D294D2955391C75392C7E4F51822C5
:100C2C00E4FF2093010F2094034307022095034314
:100C3C000704E4FEFDA8057401088002C333D8FC48
:100C4C00FC5518FBEF5CFAB50304741C8028741C6B
:100C5C002DF806E6C394034021741C2DF8E4F6EA43
:100C6C00600EEC421874192DF8E4F6EC4206800A7A
:100C7C00ECF4521874192DF8E4F6ED6021E5185CCB
:100C8C00601C74192DF806E6C3943C4011BC040595
:100C9C004306088003EC420674192DF876300DEDEE
:060CAC0064037091AF0625
:010CB200221F
:100ECD00E4F555C205C204759850438E01438E0456
:0C0EDD0075D7E875D6FF438E10D2AC220A
:100F0300A807200402C322C2AFA64EA805A650A874
:090F130003A64DC204D2AFD322A3
:100F1C00A807200502C322C2AFA654A805A64FA855
:090F2C0003A64BC205D2AFD3228B
:03002300020800D0
:09080000C0E0C0F0C0D075D010BA
:10080900209803020955C298AD99E5557015ED6414
:10081900016008ED640260030209558D4C755501AC
:10082900020955E555D39403500DAC5574502CF875
:10083900A6150555020955755500ED64AA60030210
:1008490008E0E54C640160030208E0E551540FD368
:10085900940940030208E0E551C4540F9409507704
:10086900E552540F9409506FE552C4540F9409503E
:1008790066E553540F9409505EE553C4540F940927
:100889005055E551C4540F75F00AA4FCE551540FB5
:100899002CFEE552C4540F75F00AA4FCE552540F1E
:1008A9002CFFE553C4540F75F00AA4FCE553540F0B
:1008B9002CFCEEC394184003020955EFC3943C4045
:1008C90003020955ECC3943C40030209558E548F29
:1008D9004F8C4BD2058072ED64AA7070E54C6402AE
:1008E900706AE551C394014063E551D39403505CA8
:1008F900E552540F94095054E552C4540F940950C9
:100909004BE553540F94095043E553C4540F9409CC
:10091900503AE552C4540F75F00AA4FFE552540F3A
:100929002FFEE553C4540F75F00AA4FFE553540F85
:100939002FFFEEC394185014EFC3943C500EE551A9
:1009490014F54E8E508F4DD204759906309902C216
:010959009904
:07095A00D0D0D0F0D0E03254
:03000000020FC428
:0C0FC400787FE4F6D8FD75815B020EAD6D
:00000001FF
