:100DF200C2AF120C0B120E95120E2CD2AF120E7342
:100E0200120DB0120EB250F8120B84120CFE80F0CA
:0D0EA50032303236303030303030303000F6
:100E7300E4F555F551F556F552D204F553F5540200
:020E8300091F45
:100DB0007F3A7D3B7B3C120E465015AB3CAD3BAFC2
:100DC0003A120E85E4F555F551F553F55412091F05
:100DD000120EBFE433601AE5557006300403120F9B
:100DE0000AE533700CAD37AF28120E125003120E05
:010DF000F012
:010DF10022DF
:100CFE00EF6003120ADA0554E55470020553E55508
:100D0E00B40125900EA9E493601EC3E5549446E504
:100D1E005394004013E4F553F5540552E552D39421
:100D2E00084029E4F5528024E5557020E551701CE9
:100D3E00C3E554942CE55394014011E4F553F55456
:0F0D4E00E55670047F0180027F008F5602091F57
:100ADA008F3A300003020F11E4F553F554E53A302A
:100AEA00E03AE5516021E555700AE551C394035097
:100AFA0003055122E555B4020AE551C39402500395
:100B0A00055122E4F551220555E555D394024003D7
:100B1A00E4F555E55564017060F55222E53A30E195
:100B2A0027E551700CE5556003B402057551018043
:100B3A0017E5516013E5557008FDAF51120C8A8014
:100B4A0007E4FDAF51120D5DE53A30E214E551704C
:100B5A0010E5557003B20422E5556402701B020EBB
:100B6A00CCE53A540C6012E551600EE5557D01AFB3
:0A0B7A00517003020C8A120D5D2277
:10091F00E4F541754201E55564017028E552900EEA
:10092F00A59324D0F53DE552A39324D0F53EE5528F
:10093F00A39324D0F53FE552A39324D0F540E4F5DB
:10094F00420209F7E5557066E55164036025E551EC
:10095F007004E556701DE52875F00A84F53DE5280D
:10096F0075F00A8485F03EE53775F00A84F53FE5AA
:10097F0037801BE53775F00A84F53DE53775F00ACA
:10098F008485F03EE53375F00A84F53FE53375F065
:10099F000A8485F040E55170047F0280027F018F49
:1009AF0042E551B401028033E551603C8037120EAD
:1009BF00FA8F43120F02E54375F00A84F53DE543C4
:1009CF0075F00A8485F03EEF75F00A84F53FEF75F8
:1009DF00F00A8485F040E551B401057541038008A4
:1009EF00E551B4020375410C854047854148854266
:0A09FF0049AB3FAD3EAF3D020E5F75
:0B0EE5003F065B4F666D7D077F6F00CE
:100C0B0075A0FFD2C2D2C1D2B7D2B6D2C4D2C5D28E
:100C1B00B5E4F5957596FF53B11F43B2E053B3C9D5
:100C2B0043B436538FFE75280CF537F533F538F58D
:100C3B0039752308F53475240CF535752510F53603
:100C4B00F52DC200F52EF52FF53275290A752A0AF6
:100C5B00752B0A752C0AF521F526F522F530F531A1
:100C6B00D201F527C202C203C28C438E805389F096
:0F0C7B00758ACD758CD4C28DD2B9D2A9D28C22F4
:0D0EB200200202C322C2AFC202D2AFD3227F
:0D0EBF00200302C322C2AFC203D2AFD32270
:100E5F00C2AF8F298D2A8B2B85472C854821854939
:040E6F0026D2AF22B6
:100E8500C2AF8F288D378B33E4F538F539D2AF22D1
:100C8A00C2AFED6033BF010F0528AE28EEC394183A
:100C9A00405AE4F5288055BF020F0537AE37EEC338
:100CAA00943C4048E4F53780430533AE33EEC394B1
:100CBA003C4039E4F5338034BF0110E52870047EE6
:100CCA00178004E52814FE8E288021BF0210E5371C
:100CDA0070047F3B8004E53714FF8F37800EE533BD
:100CEA0070047F3B8004E53314FF8F33E4F538F555
:040CFA0039D2AF221A
:100D5D00ED6027BF01107423252DF806E6C3941806
:100D6D0040407423800E7434252DF806E6C3943C60
:100D7D0040307434252DF8E4F622BF011374232579
:100D8D002DF8E6FF70047F178003EF14FFA60722EE
:100D9D007434252DF8E6FF70047F3B8003EF14FFBC
:030DAD00A6072274
:0D0ECC00052DE52DC394034003E4F52D2210
:080EFA007423252DF8E6FF2208
:080F02007434252DF8E6FF22EE
:100E1200E4FE74232EF8E6B5070A74342EF8E6B51C
:090E22000502D3220EBE03EAC34F
:010E2B0022A4
:0A0EF000E4F532F52EF52FD20022B2
:070F0A0020000375322822CC
:050F1100C200D2B52270
:03000B00020800E8
:0B080000C0E0C083C082C0D075D008EB
:10080B00D2C2D2C1D2B7D2B675A0FF74292522F8B5
:10081B00E6900EE593FD20011B7E007401A82208D3
:10082B008005C333CE33CED8F9FFAC21ECFBEF5BA5
:10083B0060027D00EDF4F5A0E5227004C2C28014C5
:10084B00E522B40104C2C1800BE522B40204C2B795
:10085B008002C2B60522E522C39404400375220030
:10086B000531E53170020530C394F4E53094014055
:10087B0008753000753100B201E526B40104C2C41D
:10088B008012E526B4020B300103C38001D392C45E
:10089B008002D2C40539E53970020538AE38C394ED
:1008AB00E8EE9403402C753800753900D2030533FC
:1008BB00AF33EF943C401B7533000537AF37EF94E4
:1008CB003C400F7537000528AF28EF94184003758F
:1008DB002800300019B2B5052FE52F7002052EAE9A
:1008EB002EC39430EE94754014120F11800FE53225
:1008FB006009B2B5D53206D2B58002D2B50527E56F
:0B090B0027C3940A4005752700D202A4
:09091600D0D0D082D083D0E032B1
:100E9500D293D294D2955391C75392C7E4F51822B1
:100B8400E4FF2093010F20940343070220950343BD
:100B94000704E4FEFDA8057401088002C333D8FCF1
:100BA400FC5518FBEF5CFAB50304741C8028741C14
:100BB4002DF806E6C394034021741C2DF8E4F6EAEC
:100BC400600EEC421874192DF8E4F6EC4206800A23
:100BD400ECF4521874192DF8E4F6ED6021E5185C74
:100BE400601C74192DF806E6C3943C4011BC04053E
:100BF4004306088003EC420674192DF876300DED97
:060C040064037091AF06CD
:010C0A0022C7
:100E2C00E4F54DC205759850438E01438E0475D779
:0A0E3C00E875D6FF438E10D2AC22F9
:100E4600A807200502C322C2AFA64CA805A64BA838
:090E560003A64AC205D2AFD32263
:03002300020A09C5
:090A0900C0E0C0F0C0D075D010AF
:100A1200209803020ACEC298AF99E54D700EEF649A
:100A2200016003020ACE754D01020ACEE54DD39450
:100A320003500DAE4D744D2EF8A617054D020ACE89
:100A4200754D00EF64AA6003020ACEE54E540FD33F
:100A520094095078E54EC4540F9409506FE54F54F1
:100A62000F94095067E54FC4540F9409505EE55046
:100A7200540F94095056E550C4540F9409504DE553
:100A82004EC4540F75F00AA4FFE54E540F2FFFE534
:100A92004FC4540F75F00AA4FEE54F540F2EFEE525
:100AA20050C4540F75F00AA4FDE550540F2DFDEF0C
:100AB200C394185017EEC3943C5011EDC3943C50AC
:100AC2000B8F4C8E4B8D4AD205759906309902C216
:010AD200998A
:070AD300D0D0D0F0D0E032DA
:03000000020ED914
:0C0ED900787FE4F6D8FD758156020DF21A
:00000001FF
