:10096D00C2AF120552120A1A120AB41209E5D2AF19
:10097D00120A6E120754120B1E50F81205E31208DC
:03098D002A80F0CD
:0D0AE10032303234333631303031333500AD
:1000030075F00A8485F0432275F00A84F54222755F
:06001300F00A84F544220E
:100A6E00E4F566F562F567F563D208F564F565029F
:020A7E000298DC
:100754007F3D7D3E7B3F120A015015200003120BA2
:1007640030AB3FAD3EAF3D120AA4E4F5661207BDBF
:100774007F407D3D7B3E7545411209905019200014
:1007840003120B30854145AB3EAD3DAF401209AD80
:10079400756602E41207BD120B27E433601AE5669E
:1007A4007006300803120B38E536700CAD3AAF29E9
:0807B4001209C95003120A47A3
:0B07BC0022F562F564F5651202982238
:10082A00EF60031203A30565E56570020564E566DA
:10083A00B40123E56320E71EC3E5659446E56494A5
:10084A00004013E4F564F5650563E563D394084055
:10085A0029E4F5638024E5667020E562701CC3E52F
:10086A0065942CE56494014011E4F564F565E56747
:0D087A0070047F0180027F008F67020298EA
:1003A3008F3D30000302001EE4F564F565E53D3042
:1003B300E04AE562602EE566700AE562C394035085
:1003C30003056222E566B40215E562C39403500E89
:1003D3000562E5626403600302048202047FE4F5BC
:1003E30062020B300566E566D394034003E4F566C9
:1003F300E56664016003020482F56322E53D30E1B2
:100403002FE562700CE5666003B402057562018036
:100413001FE562601BE5667008FDAF621206E080AF
:100423000FE4FDAF6212066AE562B40303120483AC
:10043300E53D30E226E5627022E5667003B20822EC
:10044300E566B4010DE56330E704E4F56322756303
:100453008822E56664027027020AEEE53D540C60CB
:100463001EE562601AE56670077D01AF620206E071
:100473007D01AF6212066AE562B4030312048322AC
:0F048300742F252EF8E6FF7D707C171209472293
:10029800E4F5467F01E56664017027E563547FFF56
:1002A800900AE19324D0F542EFA39324D0F543EFCD
:1002B800A39324D0F544EFA39324D0F545E4FF029B
:1002C8000392E5667052E5626403601BE5627004A0
:1002D800E5677013E52912000BE529120003E53ADA
:1002E800120012E53A8011E53A12000BE53A1200C5
:1002F80003E536120012E53675F00A8485F045E507
:100308006270047E0280027E01AF06E562B40102DB
:100318008053E56260748058E56664027057E56250
:10032800B4031B75420CE52E04F54375440D742F78
:10033800252EF8E604F545754608E4FF804C74243C
:10034800252EF8E6FE7437252EF8E6FDEE12000B92
:10035800EE120003ED120012ED75F00A8485F045E7
:10036800E562B401057546038020E5626402701AEF
:1003780075460C80157F471207C7EF12000BEF1266
:10038800000385474475450B7F0385454B85464CDF
:0B0398008F4DAB44AD43AF42020A336F
:0E0AD3003F065B4F666D7D077F6F00397740F1
:1005520075A0FFD2C2D2C1D2B7D2B6D2C4D2C5D24E
:10056200B5E4F5957596FF53B11F43B2E053B3C995
:1005720043B4364391015392FE759D0175BC80537D
:100582008FFE75290CF53AF536F53BF53C752408D6
:10059200F53775250CF538752610F539F52F7530B8
:1005A20001753102F52EC200F532F533752A0A754E
:1005B2002B0A752C0A752D0AF522F527F523F53439
:1005C200F535D201F528C202C203C28E438E4053D2
:1005D200890F758BCD758DD4C28FD2BBD2ABD28E23
:0105E20022F6
:090B1E00200202C322C202D3220C
:090B2700200302C322C203D32201
:0207C700A90780
:1007C90075BC88E5BC30E4FB53BCEFAFBDEF75F0F9
:1007D90004A4FFADBEEF4DFDACF0ECC4F854F0C875
:1007E90068FEEDC4540F48FFC3ED9FFDEC9EFCC3AA
:1007F900ED94E6EC940050047C007DE6741A2DFD1E
:1008090074FF3CFCE4FFC3ED940AEC9400400B74C4
:10081900F62DFD74FF3CFC0F80ECAE05A801A60681
:0108290022AC
:100A3300C2AF8F2A8D2B8B2C854B2D854C22854D58
:040A430027D2AF22E5
:100AA400C2AF8F298D3A8B36E4F53BF53CD2AF22A9
:1006E000C2AFED6033BF010F0529AE29EEC39418E8
:1006F000405AE4F5298055BF020F053AAE3AEEC3E1
:10070000943C4048E4F53A80430536AE36EEC39457
:100710003C4039E4F5368034BF0110E52970047E91
:10072000178004E52914FE8E298021BF0210E53AC6
:1007300070047F3B8004E53A14FF8F3A800EE53663
:1007400070047F3B8004E53614FF8F36E4F53BF5FB
:040750003CD2AF22C6
:10066A00EF6403702AED6014742F252EF806E6C392
:10067A0094034061742F252EF8E4F622742F252E58
:10068A00F8E6FE70047E028003EE14FEA60622BF80
:10069A000104742480027437252EFEA806ED601723
:1006AA00BF010A06E6C39418402BE4F62206E6C305
:1006BA00943C4021E4F622BF010EE6FF70047F1746
:1006CA008003EF14FFA60722E6FF70047F3B800336
:0506DA00EF14FFA6076C
:0106DF0022F8
:1009AD0074242FF8A60574372FF8A603E545C394D4
:0C09BD00035006742F2FF8A6458F2E2241
:0D0AEE00052EE52EC394034003E4F52E22EF
:1009C900E4FE74242EF8E6B5070C74372EF8E6B564
:0B09D90005048E2ED3220EBE03E8C3DF
:0109E40022F0
:100A4700E4F532F533D200742F252EF8E6FFE4FDE6
:040A5700FC0209474D
:030B3800020A802E
:05001E00C200020B30DE
:03001B0002017867
:0D017800C0E0C0F0C083C082C0D075D008C8
:10018500D2C2D2C1D2B7D2B675A0FF742A2523F840
:10019500E6900AD393FD20011B7E007401A8230875
:1001A5008005C333CE33CED8F9FFAC22ECFBEF5B31
:1001B50060027D00E527B40308E523B40103430D80
:1001C50080EDF4F5A0E5237004C2C28014E523B4E4
:1001D5000104C2C1800BE523B40204C2B78002C288
:1001E500B60523E523C3940440037523000535E5CF
:1001F5003570020534C394F4E53494014008753430
:1002050000753500B201E527B40104C2C48012E5CA
:1002150027B4020B300103C38001D392C48002D2FC
:10022500C4053CE53C7002053BAE3BC394E8EE9447
:1002350003402C753B00753C00D2030536AF36EF05
:10024500943C401B753600053AAF3AEF943C400F9D
:10025500753A000529AF29EF941840037529001256
:1002650008873000150533E53370020532AE32C319
:100275009430EE9475400312001E0528E528C394BA
:080285000A4005752800D202B1
:0B028D00D0D0D082D083D0F0D0E0327F
:100AB400D293D294D2955391C75392C7E4F55B2253
:1005E300E4FF2093010F2094034307022095034364
:1005F3000704E4FEFDA8057401088002C333D8FC98
:10060300FC555BFBEF5CFAB50304745F8028745FF1
:100613002DF806E6C394034021745F2DF8E4F6EA4F
:10062300600EEC425B745C2DF8E4F6EC4206800A43
:10063300ECF4525B745C2DF8E4F6ED6021E55B5C51
:10064300601C745C2DF806E6C3943C4011BC0405A1
:100653004306088003EC4206745C2DF876300DEDFA
:0606630064037091AF0674
:01066900226E
:10091700E556C4540F75F00AA4FFE556540F2FFD92
:10092700E557C4540F75F00AA4FF22E557540F2F5B
:10093700FEEDC3941822E55514F5528D548E5122BD
:100A5B00EF540FD394095009EFC4540F940950016C
:030A6B0022C32281
:1009E500E4F55AC205C204759850438E01438E043E
:0C09F50075D7E875D6FF438E10D2AC22F7
:10099000A807200402C322C2AFA652A805A654A8E5
:0D09A00003A651A845A64EC204D2AFD32233
:100A0100A807200502C322C2AFA659A805A653A86C
:090A110003A64FC205D2AFD322A7
:03002300020026B2
:09002600C0E0C0F0C0D075D0109C
:10002F0020980302016CC298AC99E55A701AECC380
:10003F009401500302016CECD39403400302016C52
:10004F008C50755A0102016CE550B403047F048093
:10005F00027F03E55AD39F500DAF5A74542FF8A661
:10006F0014055A02016C755A00EC64AA7060E550D1
:10007F006401705AAF55120A5B5053AF56120A5BA8
:10008F00504CAF57120A5B5045E555120929E555FB
:10009F00540F2FFDE556120929E556540F2FFE1266
:1000AF000927E557540F2FFFEDC3941840030201A2
:1000BF006CEEC3943C400302016CEFC3943C4003CD
:1000CF0002016C8D598E538F4FD205020169EC647A
:1000DF00AA703AE55064027034E555C39401402D7F
:1000EF00E555D394035026AF56120A5B501FAF57F6
:1000FF00120A5B50181209171209325060EEC3949E
:10010F003C505A12093D754EFFD204804DEC64AA43
:10011F00704BE55064037045E555C39401403EE5CF
:10012F0055D394035037E558C394014030E558D365
:10013F0094035029AF56120A5B5022AF57120A5B35
:10014F00501B1209171209325013EEC3943C500D75
:10015F0012093DE55814F54ED204759906309902EF
:02016F00C29933
:07017100D0D0D0F0D0E03245
:1004920003080308040806080608040803080208FB
:1004A2000108010802080308030C020402100004F8
:1004B20003080308040806080608040803080208DB
:1004C2000108010802080308020C010401100006D9
:1004D200070408040908080409080A08080C0304A8
:1004E2000704060807040908060C030404040308A9
:1004F20004040908030C0904090408080508050492
:100502000808080C0004070606060306020606068B
:100512000706060C0706020603060606071207066A
:1005220006060306020606060706060C070602066C
:100532000306060607120004004076A8D6B4DB3490
:10054200DF3AE10EE2D0E473E775EA24EB5FEFA055
:0B0B1300C2AB120AFBC206E4F51B2275
:0C0AFB00538FFEC28CC28DC207D2B52200
:0F0AC400120AFB8F8A8E8CD207D28C438F0122AD
:1008D300E51AC39519400385181AAF1A051AEF9044
:1008E300049293FBAF1A051AEF93FF7E007C007D01
:1008F30032120A928E1E8F1F120AFBEB601525E03F
:10090300243CF582E43405F583E493FE740193FFFC
:03091300120AC401
:0109160022BE
:100A1A00C2A9C28C5389F0438E80C28D538FFEC205
:090A2A0007C206E4F51BD2B52257
:10094700EFC394034002E4FF120B13EF90053A93B1
:10095700F518EFA393F51985181A8C1C8D1DD2066F
:060967001208D3D2AB22FE
:100A800020060EC2AB751B287FCD7ED4120AC4D2BD
:020A9000AB2297
:080B3000120B13D2B5D2AB2267
:1008870020060DE51B6044151BE51B703E020AFBA5
:10089700E51D451C6010E51D151D7002151C14454E
:1008A7001C7003020B30E51F451E601FE51F151F57
:1008B7007002151EE51F6419451E700630070312E6
:0C08C7000AFBE51F451E70031208D32237
:03000000020B07E9
:0C0B0700787FE4F6D8FD75816702096D67
:100A9200EF8DF0A4A8F0CF8CF0A428CE8DF0A42E78
:020AA200FE2232
:00000001FF
