:100E7100C2AF1205EB120683120F6F121045120E4C
:100E8100C0D2AF1210231207A41210FB5006120891
:090E91002E1207181208B580EDBD
:0D10900032303234333631303031333500F8
:100DEE00F51AF51FC209F51CF51DF518F519227532
:100DFE00F00A8485F04B2275F00A84F54A22F51824
:0C0E0E00F519C2092275F00A84F54C2287
:10102300E4F51EF51AF51FF51BD20A120DF20203A1
:011033000FAD
:1007A4007F437D447B45120F56501B2000031211DA
:1007B4000DAB45AD44AF431210B7121115E4F51E4D
:1007C400120DEE12030F7F467D437B44754D471295
:1007D4000F02501F20000312110D85474DAB44AD8D
:1007E40043AF46120F1F121115751E02E4120DEECF
:1007F40012030F7F467D48120F88500AAD48AF465A
:10080400120DC1121115121034500A7F49120AF444
:10081400AD49121055121104E433600DE51E700643
:09082400300A0312111B120D61D0
:01082D0022A8
:10071800EF6003120427051DE51D7002051CE51E88
:100728007024E51A70200519E51970020518C3949C
:10073800E8E51894034013E4F518F519B209F51F14
:10074800F51CF51D8004E4120E0CE51EB40123E52A
:100758001B20E71EC3E51D9446E51C94004013E4E6
:10076800F51CF51D051BE51BD39408402CE4F51B6F
:100778008027E51E7023E51A701F20091CC3E51D9C
:10078800942CE51C94014011E4F51CF51DE51F703F
:0C079800047F0180027F008F1F02030F0E
:100427008F4330000BE54330E003020D3002001E1E
:10043700E4F51CF51DE51E7005120E0CF51FE543CE
:1004470030E056E51A6031E51E700AE51AC39403D9
:100457005003051A22E51EB40215E51AC39403508A
:100467000E051AE51A64036003020523020520122C
:100477001115E4F51A02110D051EE51ED39402406D
:1004870003E4F51EE51EB40103E4F51BE51E600356
:10049700020523120E0CF51F22E54330E12FE51A62
:1004A700700CE51E6003B40205751A01801FE51A7A
:1004B700601BE51E7008FDAF1A120A1E800FE4FDCF
:1004C700AF1A1209A8E51AB40303120524E543304D
:1004D700E226E51A7022E51E7003B20A22E51EB471
:1004E700010DE51B30E704E4F51B22751B8822E5A7
:1004F7001E6402702702109DE543540C601EE51A26
:10050700601AE51E70077D01AF1A020A1E7D01AF52
:100517001A1209A8E51AB403031205242274302518
:0C0527002EF8E6FF7D707C17120E9A2261
:10030F00E4F54E7F01E51E64017027E51B547FFF66
:10031F009010909324D0F54AEFA39324D0F54BEF90
:10032F00A39324D0F54CEFA39324D0F54DE4FF0213
:10033F000416E51E707730091BE51A70177F4F12F0
:10034F000AF4EF120E05EF120DFD854F4C754D0B94
:10035F007F038039E51A6403601BE51A7004E51FFB
:10036F007013E529120E05E529120DFDE53E120E5B
:10037F0013E53E8011E53E120E05E53E120DFDE53B
:10038F0039120E13E53975F00A8485F04D300904E2
:10039F00E51A6073E51A70047E0280027E01AF06D3
:1003AF00E51AB401028053E51A605C8057E51E64BC
:1003BF00027054E51AB4031B754A0CE52E04F54B75
:1003CF00754C0D7430252EF8E604F54D754E08E486
:1003DF00FF80347424252EF8E6FE743A252EF8E6B5
:1003EF00FDEE120E05EE120DFDED120E13ED75F072
:1003FF000A8485F04DE51AB40105754E038008E5B2
:10040F001AB40203754E0C854D53854E548F55AB60
:08041F004CAD4BAF4A020FB2D5
:0E1082003F065B4F666D7D077F6F003977403C
:0A10F100E4F53FF540C203D2AF2240
:1005EB0075A0FFD2C2D2C1D2B7D2B6D2C4D2C5D2B5
:1005FB00B5E4F5957596FF53B11F43B2E053B3C9FC
:10060B0043B4364391015392FE759D0175BC8053E3
:10061B008FFE75290CF53EF539F53FF5407524082D
:10062B00F53A75250CF53B752610F53CF530753113
:10063B0001753202753307F52EF538C200F534F526
:10064B0035C203752A0A752B0A752C0A752D0AF506
:10065B0022F527F523F536F537D201F528C202C26C
:10066B0004C28E438E4053890F758BCD758DD4C2CA
:08067B008FD2BBD2ABD28E225C
:0910FB00200202C322C202D3222A
:09110400200402C322C204D3221C
:020AF400A90750
:100AF60075BC88E5BC30E4FB53BCEFAFBDEF75F0C9
:100B060004A4FFADBEEF4DFDACF0ECC4F854F0C844
:100B160068FEEDC4540F48FFC3ED9FFDEC9EFCC379
:100B2600ED94E6EC940050047C007DE6741A2DFDED
:100B360074FF3CFCE4FFC3ED940AEC9400400B7494
:100B4600F62DFD74FF3CFC0F80ECAE05A801A60651
:010B5600227C
:100FB200C2AF8F2A8D2B8B2C85532D8554228555BC
:040FC20027D2AF2261
:0C10B700C2AF8F298D3E8B391210F12240
:100A1E00C2AFED6033BF010F0529AE29EEC39418A6
:100A2E00405AE4F5298055BF020F053EAE3EEEC397
:100A3E00943C4048E4F53E80430539AE39EEC3940C
:100A4E003C4039E4F5398034BF0110E52970047E4D
:100A5E00178004E52914FE8E298021BF0210E53E81
:100A6E0070047F3B8004E53E14FF8F3E800EE53917
:100A7E0070047F3B8004E53914FF8F391210F12288
:1009A800EF6403702AED60147430252EF806E6C350
:1009B800940340617430252EF8E4F6227430252E15
:1009C800F8E6FE70047E028003EE14FEA60622BF3F
:1009D800010474248002743A252EFEA806ED6017DF
:1009E800BF010A06E6C39418402BE4F62206E6C3C4
:1009F800943C4021E4F622BF010EE6FF70047F1705
:100A08008003EF14FFA60722E6FF70047F3B8003F4
:050A1800EF14FFA6072A
:010A1D0022B6
:100F1F0074242FF8A605743A2FF8A603E54DC39451
:0C0F2F0003500674302FF8A64D8F2E22C0
:100DC100A8077401088002C333D8FCFEED6004EE6D
:100DD100423322EEF45233300307E541B50702C234
:0C0DE10003300008E538B5070312001EBF
:010DED0022E3
:0D109D00052EE52EC394034003E4F52E223A
:020CFC00A90746
:100CFE00E4FC7E007401A804088005C333CE33CE15
:100D0E00D8F9FFEF5533601474242CF8E6B5010CB6
:100D1E00743A2CF8E6B505048C2ED3220CBC03D203
:010D2E00C301
:010D2F0022A1
:100D6100300319E529B52F14E53EB5420FE539B534
:100D71003D0AC20320001885412E8010200010E595
:100D810039700CAD3EAF29120CFC50031200032246
:100D3000C2AF85292FE53E240AF54285393DC3948B
:100D40003C401274C42542F542052FE52FC3941888
:100D50004003E4F52F853841D203C200D2AF02111F
:010D60000D85
:10000300E4F534F535852E38D20074302538F8E61A
:07001300FFE4FDFC020E9A60
:03111B00020FFFC1
:05001E00C20002110DFB
:03001B000201EFF0
:0D01EF00C0E0C0F0C083C082C0D075D00851
:1001FC00D2C2D2C1D2B7D2B675A0FF742A2523F8C9
:10020C00E690108293FD20011B7E007401A8230848
:10021C008005C333CE33CED8F9FFAC22ECFBEF5BB9
:10022C0060027D00E527B40308E523B40103430D08
:10023C0080EDF4F5A0E5237004C2C28014E523B46C
:10024C000104C2C1800BE523B40204C2B78002C210
:10025C00B60523E523C3940440037523000537E555
:10026C003770020536C394F4E536940140087536B0
:10027C0000753700B201E527B40104C2C48012E551
:10028C0027B4020B300103C38001D392C48002D285
:10029C00C40540E5407002053FAE3FC394E8EE94C0
:1002AC0003402C753F00754000D2040539AF39EF7F
:1002BC00943C401B753900053EAF3EEF943C400F1B
:1002CC00753E000529AF29EF9418400375290012DB
:1002DC000B573000150535E53570020534AE34C3C7
:1002EC009430EE9475400312001E0528E528C39443
:0802FC000A4005752800D2023A
:0B030400D0D0D082D083D0F0D0E03207
:10104500D293D294D2955391C75392C7E4F57022A7
:10082E00E4FF2093010F2094034307022095034316
:10083E000704E4FEFDA8057401088002C333D8FC4A
:10084E00FC5570FBEF5CFAB5030474748028747465
:10085E002DF806E6C39403402174742DF8E4F6EAED
:10086E00600EEC427074712DF8E4F6EC4206800ACC
:10087E00ECF4527074712DF8E4F6ED6021E5705CC5
:10088E00601C74712DF806E6C3943C4011BC04053F
:10089E004306088003EC420674712DF876300DED98
:0608AE0064037091AF0627
:0108B4002221
:100D9100E560C4540F75F00AA4FFE560540F2FFD00
:100DA100E561C4540F75F00AA4FF22E561540F2FC9
:100DB100FEEDC3941822E55F14F55B8D5E8E59221A
:100FC600EF540FD394095009EFC4540F94095001FC
:030FD60022C32211
:100EC000E4F564C208C205C206C207F5657598500C
:100ED000438E01438E0475D7E875D6FF438E10D23A
:020EE000AC2242
:100F0200A807200502C322C2AFA65BA805A65EA859
:0D0F120003A659A84DA656C205D2AFD322A2
:100F8800A807200602C322C2AFA65CA805A666C2AF
:050F980006D2AFD322D8
:10103400300704E5656002C322C2AFC207D2AFD352
:011044002289
:0F105500C2AF8F678D5A756501759905D2AF22AD
:100F5600A807200802C322C2AFA663A805A65DA8FB
:090F660003A657C208D2AFD32242
:03002300020026B2
:09002600C0E0C0F0C0D075D0109C
:10002F002098030201B9C298AC99E564701AECC329
:10003F00940150030201B9ECD3940540030201B9B6
:10004F008C587564010201B9E558B4051075640048
:10005F00EC64AA60030201B9D2070201B9E558B4F2
:10006F0004047F02800BE558B403047F0480027FF1
:10007F0003E564D39F500DAF64745E2FF8A614058B
:10008F00640201B9756400EC64AA7060E5586401FC
:10009F00705AAF5F120FC65053AF60120FC6504C5D
:1000AF00AF61120FC65045E55F120DA3E55F540F08
:1000BF002FFDE560120DA3E560540F2FFE120DA169
:1000CF00E561540F2FFFEDC3941840030201B9EE01
:1000DF00C3943C40030201B9EFC3943C40030201B7
:1000EF00B98D638E5D8F57D2080201B6EC64AA708A
:1000FF0041E5586402703BE55FC394014034E55F0E
:10010F00D39403502DAF60120FC65026AF61120F5C
:10011F00C6501F120D91120DAC40030201B9EEC370
:10012F00943C40030201B9120DB77556FFD2050278
:10013F0001B6EC64AA704AE55864037044E55FC3E6
:10014F009401403DE55FD394035036E562C39401BB
:10015F00402FE562D394035028AF60120FC6502191
:10016F00AF61120FC6501A120D91120DAC503BEE2B
:10017F00C3943C5035120DB7E56214F556D2058085
:10018F0026BCAA26E558B40421E55FC39401401AA2
:10019F00E55FD394035013E5609401500DE55F14B0
:1001AF00F55C856066D20675990630992CC299E583
:1001BF0065B40108756502856799801DE565B40210
:1001CF0008756503855A998010E565B40308756550
:0901DF00047599AA8003756500FE
:0701E800D0D0D0F0D0E032CE
:100533000308030804080608060804080308020859
:100543000108010802080308030C02040210000456
:100553000308030804080608060804080308020839
:100563000108010802080308020C01040110000637
:10057300070408040908080409080A08080C030406
:100583000704060807040908060C03040404030807
:1005930004040908030C09040904080805080504F0
:1005A3000808080C00040908080407040704030CDE
:1005B30006040708040804080304020803080408DF
:1005C30004080608030803040404030402040004E3
:1005D300004076A0D6B4DB34DF3AE10EE2D0E47318
:0805E300E775EA24EB5FEFA0CD
:0B10DB00C2AB1210C3C20BE4F56B2285
:0C10C300538FFEC28CC28DC20CD2B5222D
:0F1064001210C38F8A8E8CD20CD28C438F012234
:100C3600E56AC39569400385686AAF6A056AEF90FD
:100C4600053393FBAF6A056AEF93FF7E007C007D58
:100C5600321210118E6E8F6F1210C3EB601525E0E5
:100C660024D5F582E43405F583E493FE740193FFFD
:030C7600121064F5
:010C79002258
:100F6F00C2A9C28C5389F0438E80C28D538FFEC2AB
:090F7F000CC20BE4F56BD2B522A3
:100E9A00EFC394034002E4FF1210DBEF9005D393F3
:100EAA00F568EFA393F56985686A8C6C8D6DD20B32
:060EBA00120C36D2AB223F
:100FFF00200B0EC2AB756B287FCD7ED4121064D23E
:02100F00AB2212
:08110D001210DBD2B5D2AB22B7
:100B5700200B0DE56B6044156BE56B703E0210C30F
:100B6700E56D456C6010E56D156D7002156C1445EB
:100B77006C700302110DE56F456E601FE56F156F11
:100B87007002156EE56F6419456E7006300C03121E
:0C0B970010C3E56F456E7003120C36228F
:100CBE00EF75F003A42409FE2400F582E43400F558
:100CCE00832274012EF582E43400F5832274022E01
:100CDE00F582E43400F583228FC48EC375C65A752F
:0E0CEE00C6A522A2AFE433FDC2AF75C78322B4
:0D10AA00E4F5C7F5C5F5C675C380F5C42291
:060F3B00EC2BFFE43AFE7E
:100F4100120CF175C501120CE600AFC21210AAED28
:040F510024FF92AF38
:010F55002279
:100EE200A2AFE433F9C2AF75C78375C5028FC48E52
:0F0EF200C38DC2120CEA001210AAE924FF92AFBE
:010F010022CD
:100FD900120CF175C503120CE6001210AAED24FFDC
:020FE90092AFC5
:010FEB0022E3
:100E1A00E4FEFDEDC39F502174002D120CC8E06260
:100E2A0006E4FCEE30E70725E06407FE8004EE25C1
:0B0E3A00E0FE0CBC08ED0D80DAAF06F6
:010E4500228A
:100BA300900006E0C39418500EA3E0C3943C500792
:100BB300A3E0C3943C4002C322900003E0600854C6
:100BC300F864A06002C322E4FF120CBEE0C39418D1
:100BD3005012120CD0E0C3943C5009120CDBE0C35A
:0B0BE30094034002C3220FBF03DFD3C6
:010BEE0022E4
:060A8E00AB07AA06A90552
:100A9400EB2413120F3DEF64A56002C322E4FC12A1
:100AA4000F3B74002C120CC8EFF00CBC14F1900036
:100AB40000E064437023A3E0644B701DA3E0B40121
:100AC40018900013E0B4A5117F12120E1A900012B0
:100AD400E0B50705120BA34002C322900005E0FE17
:0F0AE400900004E0FDEDFFA801A60608A607D3C9
:010AF30022E0
:100FEC00C3EF9DFFEE9CFE4F6007C3EE9480500153
:020FFC0022C30E
:010FFE0022D0
:040F9D00AB07AA06EE
:100FA100E4FC120F3BEFF46002C3220CBC14F3D338
:010FB100221D
:0B10E600EF7003FEFF227E027F00225D
:100E46001210E68F828E83E4F9AF82AE83120F9D75
:100E56005005AF82AE832274142582F582E4358371
:0A0E6600F58309B919E37EFF7FFF51
:010E7000225F
:100BEF00900006E0F529A3E0F53EA3E0F53990006B
:100BFF0003E0FF70047F078004EF5407FF8F33E497
:100C0F00FF120CBEE0FD74242FF8A605120CD0E0E5
:100C1F00FD743A2FF8A605120CDBE0FD74302FF8A7
:060C2F00A6050FBF03DB68
:010C3500229C
:10092F009000007443F0A3744BF0A37401F0E5330F
:10093F0044A0A3F0A3EFF0A3EEF0A2AFE433FFC205
:10094F00AFA3E529F0A3E53EF0A3E539F0E4FEEE11
:10095F0075F003A42409FD74242EF8E6FC74002D11
:10096F00120CC8ECF0743A2EF8E6FC74012D120C40
:10097F00D3ECF074302EF8E6FC74022D120CDEEC82
:10098F00F00EBE03CAEF24FF92AF7F12120E1A9021
:08099F000012EFF0A374A5F0B3
:0109A700222D
:080C7A008C468D47AB07AA066A
:100C8200E4FCEC2BFFE43AFE74002C120CC8E0FDED
:100C9200120EE20CBC13EBEB2413FFE43AFE7DA52B
:100CA200120EE2AF03AE027D48120A8E500CE549E5
:0B0CB200B54707E548B54602D322C352
:010CBD002214
:0F107300057AE57AC394034005E4F57AC20D22AD
:100683001210AAC20DE4F57A7577FFF578F579F5BE
:1006930045F546F54BF54CF54DF54EF543AF431295
:1006A30010E68E478F48E4F5447D49AF48AE4712C4
:1006B3000A8E5023E545600DAD4EAC4DAF4AAE49B1
:1006C300120FEC501275450185434685474B85480B
:1006D3004C85494D854A4E74142548F548E4354701
:1006E300F5470544E544C3941940BE0543E543C3B8
:1006F300940240A9E545601C7D49AF4CAE4B120AFC
:100703008E5011120BEF854677E54E2401F579E4FF
:04071300354DF578F3
:0107170022BF
:06111500E4F57AD20D2280
:1008B500300D76E577C39402500BAF77120E468E56
:1008C500448F45800674FFF544F545E545F470030E
:1008D500E544F4701DE57770047F0180027F008F89
:1008E500431210E6120FD9AF43120E468E448F45C0
:1008F5008003857743E545B4FF07E544B4FF0280EF
:1009050025AF79AE7812092FAD79AC78AF45AE44F5
:10091500120C7A50118543770579E57970020578CF
:09092500E4F57AC20D22121073F0
:01092E0022A6
:030000000210CF1C
:0C10CF00787FE4F6D8FD75817A020E717E
:10101100EF8DF0A4A8F0CF8CF0A428CE8DF0A42EF3
:02102100FE22AD
:00000001FF
