:100EAE00C2AF120BB4120F82120ECED2AF120F605F
:100EBE00120D9D120FE750F8120C3F120DFE80F02E
:0D0FA10032303234333631303031333500E8
:100F360075F00A8485F03F2275F00A84F53E227525
:060F4600F00A84F54022D0
:100F6000E4F559F555F55AF556D206F557F55802F8
:020F7000092C4A
:100D9D007F3A7D3B7B3C120F1D500FAB3CAD3BAF03
:100DAD003A120F72E4F559120DF47F3D7D3A7B3BFB
:100DBD00120F045010AB3BAD3AAF3D120F92755967
:100DCD0002E4120DF4120FF0E433601AE5597006C7
:100DDD00300603120FFEE533700CAD37AF28120E3F
:060DED00EA5003120FD3CF
:0B0DF30022F555F557F55812092C2287
:100DFE00EF6003120AF80558E55870020557E559D9
:100E0E00B40123E55620E71EC3E5589446E55794F2
:100E1E00004013E4F557F5580556E556D3940840AF
:100E2E0029E4F5568024E5597020E555701CC3E57C
:100E3E0058942CE55794014011E4F557F558E55AAE
:0D0E4E0070047F0180027F008F5A02092C82
:100AF8008F3A300003020FF9E4F557F558E53A301C
:100B0800E03AE5556021E559700AE555C39403506C
:100B180003055522E559B4020AE555C3940250036A
:100B2800055522E4F555220559E559D394034003A8
:100B3800E4F559E55964017072F55622E53A30E159
:100B480027E555700CE5596003B402057555018019
:100B580017E5556013E5597008FDAF55120CC680AE
:100B680007E4FDAF55120E5BE53A30E226E5557015
:100B780022E5597003B20622E559B4010DE5563055
:100B8800E704E4F5562275568822E5596402701B7D
:100B9800020FAEE53A540C6012E555600EE5597D3A
:0C0BA80001AF557003020CC6120E5B2258
:10092C00E4F5427F01E55964017027E556547FFFD9
:10093C00900FA19324D0F53EEFA39324D0F53FEF75
:10094C00A39324D0F540EFA39324D0F541E4FF0208
:10095C000A06E5597052E5556403601BE5557004B1
:10096C00E55A7013E528120F3EE528120F36E537CD
:10097C00120F45E5378011E537120F3EE537120FA0
:10098C0036E533120F45E53375F00A8485F041E501
:10099C005570047E0280027E01AF06E555B401025B
:1009AC008033E55560548038E55964027037742300
:1009BC00252DF8E6FE7434252DF8E6FDEE120F3EDB
:1009CC00EE120F36ED120F45ED75F00A8485F041ED
:1009DC00E555B401057542038020E5556402701A93
:1009EC0075420C80157F43120D3AEF120F3EEF1239
:1009FC000F3685434075410B7F038541478542483F
:0B0A0C008F49AB40AD3FAF3E020F4CE6
:0C0FBB003F065B4F666D7D077F6F0039BD
:100BB40075A0FFD2C2D2C1D2B7D2B6D2C4D2C5D2E6
:100BC400B5E4F5957596FF53B11F43B2E053B3C92D
:100BD40043B4364391015392FE759D0175BC805315
:100BE4008FFE75280CF537F533F538F5397523087C
:100BF400F53475240CF535752510F536F52DC20040
:100C0400F52EF52FF53275290A752A0A752B0A7502
:100C14002C0AF521F526F522F530F531D201F52718
:100C2400C202C203C28C438E805389F0758ACD758B
:0B0C34008CD4C28DD2B9D2A9D28C2280
:090FE700200202C322C202D3223F
:090FF000200302C322C203D32234
:020D3A00A90707
:100D3C0075BC88E5BC30E4FB53BCEFAFBDEF75F080
:100D4C0004A4FFADBEEF4DFDACF0ECC4F854F0C8FC
:100D5C0068FEEDC4540F48FFC3ED9FFDEC9EFCC331
:100D6C00ED94E6EC940050047C007DE6741A2DFDA5
:100D7C0074FF3CFCE4FFC3ED940AEC9400400B744C
:100D8C00F62DFD74FF3CFC0F80ECAE05A801A60609
:010D9C002234
:100F4C00C2AF8F298D2A8B2B85472C85482185494B
:040F5C0026D2AF22C8
:100F7200C2AF8F288D378B33E4F538F539D2AF22E3
:100CC600C2AFED6033BF010F0528AE28EEC39418FE
:100CD600405AE4F5288055BF020F0537AE37EEC3FC
:100CE600943C4048E4F53780430533AE33EEC39475
:100CF6003C4039E4F5338034BF0110E52870047EAA
:100D0600178004E52814FE8E288021BF0210E537DF
:100D160070047F3B8004E53714FF8F37800EE53380
:100D260070047F3B8004E53314FF8F33E4F538F518
:040D360039D2AF22DD
:100E5B00ED6027BF01107423252DF806E6C3941807
:100E6B0040407423800E7434252DF806E6C3943C61
:100E7B0040307434252DF8E4F622BF01137423257A
:100E8B002DF8E6FF70047F178003EF14FFA60722EF
:100E9B007434252DF8E6FF70047F3B8003EF14FFBD
:030EAB00A6072275
:0F0F920074232FF8A60574342FF8A6038F2D2291
:0D0FAE00052DE52DC394034003E4F52D222D
:100EEA00E4FE74232EF8E6B5070A74342EF8E6B544
:090EFA000502D3220EBE03EAC377
:010F030022CB
:0A0FD300E4F532F52EF52FD20022CE
:040FFE0075322822FE
:050FF900C200D2B52288
:03000B00020800E8
:0B080000C0E0C083C082C0D075D008EB
:10080B00D2C2D2C1D2B7D2B675A0FF74292522F8B5
:10081B00E6900FBB93FD20011B7E007401A82208FC
:10082B008005C333CE33CED8F9FFAC21ECFBEF5BA5
:10083B0060027D00E526B40308E522B40103430DF5
:10084B0080EDF4F5A0E5227004C2C28014E522B459
:10085B000104C2C1800BE522B40204C2B78002C2FC
:10086B00B60522E522C3940440037522000531E549
:10087B003170020530C394F4E530940140087530B3
:10088B0000753100B201E526B40104C2C48012E543
:10089B0026B4020B300103C38001D392C48002D271
:1008AB00C40539E53970020538AE38C394E8EE94C7
:1008BB0003402C753800753900D2030533AF33EF85
:1008CB00943C401B7533000537AF37EF943C400F1A
:1008DB007537000528AF28EF9418400375280030B2
:1008EB000019B2B5052FE52F7002052EAE2EC3945D
:1008FB0030EE94754014120FF9800FE5326009B297
:10090B00B5D53206D2B58002D2B50527E527C394FB
:08091B000A4005752700D20215
:09092300D0D0D082D083D0E032A4
:100F8200D293D294D2955391C75392C7E4F51822C3
:100C3F00E4FF2093010F2094034307022095034301
:100C4F000704E4FEFDA8057401088002C333D8FC35
:100C5F00FC5518FBEF5CFAB50304741C8028741C58
:100C6F002DF806E6C394034021741C2DF8E4F6EA30
:100C7F00600EEC421874192DF8E4F6EC4206800A67
:100C8F00ECF4521874192DF8E4F6ED6021E5185CB8
:100C9F00601C74192DF806E6C3943C4011BC040582
:100CAF004306088003EC420674192DF876300DEDDB
:060CBF0064037091AF0612
:010CC500220C
:0A0FDD00E551C4540F75F00AA42278
:100ECE00E4F554C205C204759850438E01438E0456
:0C0EDE0075D7E875D6FF438E10D2AC2209
:100F0400A807200402C322C2AFA64DA805A64FA875
:090F140003A64CC204D2AFD322A3
:100F1D00A807200502C322C2AFA653A805A64EA856
:090F2D0003A64AC205D2AFD3228B
:03002300020A17B7
:090A1700C0E0C0F0C0D075D010A1
:100A2000209803020AECC298AD99E5547015ED6464
:100A3000016008ED64026003020AEC8D4B755401FD
:100A4000020AECE554D39403500DAC54744F2CF8C7
:100A5000A6150554020AEC755400ED64AA7044E52D
:100A60004B6401703EE550120FDFFCE550540F2C33
:100A7000FE120FDDFCE551540F2CFFE552120FDF83
:100A8000FCE552540F2CFCEEC39418505FEFC39456
:100A90003C5059ECC3943C50538E538F4E8C4AD2E9
:100AA000058046ED64AA7044E54B6402703EE55053
:100AB000C394014037E550D394035030120FDDFF4B
:100AC000E551540F2FFEE552120FDFFFE552540F90
:100AD0002FFFEEC394185014EFC3943C500EE55012
:100AE00014F54D8E4F8F4CD204759906309902C281
:010AF000996C
:070AF100D0D0D0F0D0E032BC
:03000000020FC725
:0C0FC700787FE4F6D8FD75815A020EAE6A
:00000001FF
