:10097E00C2AF120559120A57120AC71209F6D2AFA0
:10098E00120A9312075D120B1850F81205EC12089A
:03099E003380F0B3
:0D000E00323032343336313030313335008A
:100A2B0075F00A8485F0442275F00A84F54322752B
:060A3B00F00A84F54522DB
:100A9300E4F567F563F568F564D208F565F5660274
:020AA30002AFA0
:10075D007F3E7D3F7B40120A125015200003120A86
:10076D00E5AB40AD3FAF3E120AB7E4F5671207C6E1
:10077D007F417D3E7B3F7546421209A150192000F5
:10078D0003120AE5854246AB3FAD3EAF411209BEAD
:10079D00756702E41207C6120B21E433601AE56790
:1007AD00700630080312001EE537700CAD3BAF2903
:0807BD001209DA5003120A418F
:0B07C50022F563F565F5661202AF2215
:10083300EF60031203BA0566E56670020565E567B6
:10084300B40123E56420E71EC3E5669446E5659499
:10085300004013E4F565F5660564E564D394084048
:1008630029E4F5648024E5677020E563701CC3E523
:1008730066942CE56594014011E4F565F566E56839
:0D08830070047F0180027F008F680202AFC9
:1003BA008F3E300003020003E4F565F566E53E3042
:1003CA00E04AE563602EE567700AE563C39403506B
:1003DA0003056322E567B40215E563C39403500E6F
:1003EA000563E56364036003020499020496E4F575
:1003FA0063020AE50567E567D394034003E4F567FA
:10040A00E56764016003020499F56422E53E30E180
:10041A002FE563700CE5676003B40205756301801C
:10042A001FE563601BE5677008FDAF631206E9808C
:10043A000FE4FDAF63120673E563B4030312049A73
:10044A00E53E30E226E5637022E5677003B20822D2
:10045A00E567B4010DE56430E704E4F564227564E8
:10046A008822E56764027027020AF3E53E540C60AD
:10047A001EE563601AE56770077D01AF630206E94E
:10048A007D01AF63120673E563B4030312049A2273
:0F049A00742F252EF8E6FF7DB87C0B1209512236
:1002AF00E4F5477F01E56764017027E564547FFF3C
:1002BF0090000E9324D0F543EFA39324D0F544EF91
:1002CF00A39324D0F545EFA39324D0F546E4FF0282
:1002DF0003A9E5677052E5636403601BE56370046F
:1002EF00E5687013E529120A33E529120A2BE53B5D
:1002FF00120A3AE53B8011E53B120A33E53B120A3D
:10030F002BE537120A3AE53775F00A8485F046E592
:10031F006370047E0280027E01AF06E563B40102C2
:10032F008053E56360748058E56764027057E56336
:10033F00B4031B75430CE52E04F54475450D742F5E
:10034F00252EF8E604F546754708E4FF804C742423
:10035F00252EF8E6FE7438252EF8E6FDEE120A3348
:10036F00EE120A2BED120A3AED75F00A8485F0466B
:10037F00E563B401057547038020E5636402701AD5
:10038F0075470C80157F481207D0EF120A33EF1212
:10039F000A2B85484575460B7F0385464C85474D8F
:0B03AF008F4EAB45AD44AF43020A6C1B
:0E0AD7003F065B4F666D7D077F6F00397740ED
:1005590075A0FFD2C2D2C1D2B7D2B6D2C4D2C5D247
:10056900B5E4F5957596FF53B11F43B2E053B3C98E
:1005790043B4364391015392FE759D0175BC805376
:100589008FFE75290CF53BF537F53CF53D752408CB
:10059900F53875250CF539752610F53AF52F7530AE
:1005A90001753102F52EC200F532F533F536752A9B
:1005B9000A752B0A752C0A752D0AF522F527F523DC
:1005C900F534F535D201F528C202C203C28C438E37
:1005D900805389F0758ACD758CD4C28DC2B9D2A9E0
:0305E900D28C228F
:090B1800200202C322C202D32212
:090B2100200302C322C203D32207
:0207D000A90777
:1007D20075BC88E5BC30E4FB53BCEFAFBDEF75F0F0
:1007E20004A4FFADBEEF4DFDACF0ECC4F854F0C86C
:1007F20068FEEDC4540F48FFC3ED9FFDEC9EFCC3A1
:10080200ED94E6EC940050047C007DE6741A2DFD14
:1008120074FF3CFCE4FFC3ED940AEC9400400B74BB
:10082200F62DFD74FF3CFC0F80ECAE05A801A60678
:0108320022A3
:100A6C00C2AF8F2A8D2B8B2C854C2D854D22854E1C
:040A7C0027D2AF22AC
:100AB700C2AF8F298D3B8B37E4F53CF53DD2AF2292
:1006E900C2AFED6033BF010F0529AE29EEC39418DF
:1006F900405AE4F5298055BF020F053BAE3BEEC3D6
:10070900943C4048E4F53B80430537AE37EEC3944B
:100719003C4039E4F5378034BF0110E52970047E87
:10072900178004E52914FE8E298021BF0210E53BBC
:1007390070047F3B8004E53B14FF8F3B800EE53757
:1007490070047F3B8004E53714FF8F37E4F53CF5EF
:040759003DD2AF22BC
:10067300EF6403702AED6014742F252EF806E6C389
:1006830094034061742F252EF8E4F622742F252E4F
:10069300F8E6FE70047E028003EE14FEA60622BF77
:1006A3000104742480027438252EFEA806ED601719
:1006B300BF010A06E6C39418402BE4F62206E6C3FC
:1006C300943C4021E4F622BF010EE6FF70047F173D
:1006D3008003EF14FFA60722E6FF70047F3B80032D
:0506E300EF14FFA60763
:0106E80022EF
:1009BE0074242FF8A60574382FF8A603E546C394C1
:0C09CE00035006742F2FF8A6468F2E222F
:0D0AF300052EE52EC394034003E4F52E22EA
:1009DA00E4FE74242EF8E6B5070C74382EF8E6B552
:0B09EA0005048E2ED3220EBE03E8C3CE
:0109F50022DF
:100A4100E4F536F532F533D200742F252EF8E6FFA2
:060A5100E4FDFC02095166
:04001E0075362822E9
:08000300C200120AE5D2B52289
:03000B0002017877
:0D017800C0E0C0F0C083C082C0D075D008C8
:10018500D2C2D2C1D2B7D2B675A0FF742A2523F840
:10019500E6900AD793FD20011B7E007401A8230871
:1001A5008005C333CE33CED8F9FFAC22ECFBEF5B31
:1001B50060027D00E527B40308E523B40103430D80
:1001C50080EDF4F5A0E5237004C2C28014E523B4E4
:1001D5000104C2C1800BE523B40204C2B78002C288
:1001E500B60523E523C3940440037523000535E5CF
:1001F5003570020534C394F4E53494014008753430
:1002050000753500B201E527B40104C2C48012E5CA
:1002150027B4020B300103C38001D392C48002D2FC
:10022500C4053DE53D7002053CAE3CC394E8EE9443
:1002350003402C753C00753D00D2030537AF37EF01
:10024500943C401B753700053BAF3BEF943C400F9A
:10025500753B000529AF29EF941840037529001255
:1002650008DE3000170533E53370020532AE32C3C0
:100275009430EE9475401A120003801520060DE5A2
:10028500366009B2B5D53609D2B58005200602D249
:0F029500B50528E528C3940A4005752800D20254
:0B02A400D0D0D082D083D0F0D0E03268
:100AC700D293D294D2955391C75392C7E4F5182283
:1005EC00E4FF2093010F209403430702209503435B
:1005FC000704E4FEFDA8057401088002C333D8FC8F
:10060C00FC5518FBEF5CFAB50304741C8028741CB1
:10061C002DF806E6C394034021741C2DF8E4F6EA89
:10062C00600EEC421874192DF8E4F6EC4206800AC0
:10063C00ECF4521874192DF8E4F6ED6021E5185C11
:10064C00601C74192DF806E6C3943C4011BC0405DB
:10065C004306088003EC420674192DF876300DED34
:06066C0064037091AF066B
:010672002265
:10092100E557C4540F75F00AA4FFE557540F2FFD86
:10093100E558C4540F75F00AA4FF22E558540F2F4F
:10094100FEEDC3941822E55614F5538D558E5222AF
:100A8000EF540FD394095009EFC4540F9409500147
:030A900022C3225C
:1009F600E4F55BC205C204759850438E01438E042C
:0C0A060075D7E875D6FF438E10D2AC22E5
:1009A100A807200402C322C2AFA653A805A655A8D2
:0D09B10003A652A846A64FC204D2AFD3221F
:100A1200A807200502C322C2AFA65AA805A654A859
:090A220003A650C205D2AFD32295
:03002300020026B2
:09002600C0E0C0F0C0D075D0109C
:10002F0020980302016CC298AC99E55B701AECC37F
:10003F009401500302016CECD39403400302016C52
:10004F008C51755B0102016CE551B403047F048090
:10005F00027F03E55BD39F500DAF5B74552FF8A65E
:10006F0014055B02016C755B00EC64AA7060E551CE
:10007F006401705AAF56120A805053AF57120A805C
:10008F00504CAF58120A805045E556120933E556C9
:10009F00540F2FFDE557120933E557540F2FFE125A
:1000AF000931E558540F2FFFEDC394184003020197
:1000BF006CEEC3943C400302016CEFC3943C4003CD
:1000CF0002016C8D5A8E548F50D205020169EC6477
:1000DF00AA703AE55164027034E556C39401402D7D
:1000EF00E556D394035026AF57120A80501FAF58CE
:1000FF00120A80501812092112093C5060EEC39465
:10010F003C505A120947754FFFD204804DEC64AA38
:10011F00704BE55164037045E556C39401403EE5CD
:10012F0056D394035037E559C394014030E559D362
:10013F0094035029AF57120A805022AF58120A80E9
:10014F00501B12092112093C5013EEC3943C500D61
:10015F00120947E55914F54FD204759906309902E3
:02016F00C29933
:07017100D0D0D0F0D0E03245
:1004A900010601060506050606060606050C0002F4
:1004B900040604060306030602060206010C0004EC
:1004C90003060306040605060506040603060206D6
:1004D900010601060206030603090203020C0002D3
:1004E90003060306040605060506040603060206B6
:1004F900010601060206030602090103010C0004B4
:10050900050405040608050808080710050405047C
:100519000608050809080810050405040C080A0856
:100529000808070806100B040B040A08080809083C
:100539000810000400206094AD8FB688BE8CC21CE0
:10054900C8E6CEE9D447D6B4DB34DF3AE10EE4732A
:090B2A00C2ABC28EC28FC20722C9
:10089000E55EC3955D4003855C5EAF5E055EEF90EF
:1008A00004A993FBAF5E055EEF93FF7E007C007DA5
:1008B00032120AA58E618F62120B2AD2B5EB601B31
:1008C00025E0243FF582E43405F583E493FE7401CA
:0D08D00093AC068C8DF58BD207D28ED2AB87
:0108DD0022F8
:100A5700C28E53890F438E40C28FD2BBD2ABC2071F
:050A6700C206D2B52219
:10095100EFC394034002E4FFC2A9C2ABC28EC20737
:10096100C206EF90053D93F55CEFA393F55D855CC1
:0D0971005E8C5F8D60D206120890D2A92224
:0E0AE500C2A9120B2AC206D2B5D2ABD2A922E8
:1008DE0030063FE560455F6010E5601560700215FB
:1008EE005F14455F7003020AE5E56245616023E52A
:1008FE0062156270021561E56264144561700A301A
:10090E000707120B2AD2B5D2ABE56245617003120E
:03091E000890221C
:03001B00020B00D5
:0C0B0000300603200703D2B532B2B53234
:03000000020B0CE4
:0C0B0C00787FE4F6D8FD75816802097E50
:100AA500EF8DF0A4A8F0CF8CF0A428CE8DF0A42E65
:020AB500FE221F
:00000001FF
