:100D9000C2AF120C47120E17120DB0D2AF120DF7E0
:100DA000120D59120E3450F8120B54120CB980F077
:0D0E27003230323630303030303030300074
:100DF700E4F54CF548F54DF549F54AF54B0209126E
:100D59007F347D357B36120DCA5015AB36AD35AFB4
:100D690034120E07E4F54CF548F54AF54B12091211
:100D7900120E415011E52F700DE525B52608E53015
:060D8900B53103120E65F6
:010D8F002241
:100CB900EF6003120AC4054BE54B7002054AE54C87
:100CC900B40125900E2BE493601EC3E54B9446E5D1
:100CD9004A94004013E4F54AF54B0549E549D39494
:100CE900084029E4F5498024E54C7020E548701C4A
:100CF900C3E54B942CE54A94014011E4F54AF54BC0
:0F0D0900E54D70047F0180027F008F4D020912BB
:100AC4008F34300003020E6DE4F54AF54BE5343003
:100AD400E03AE5486021E54C700AE548C3940350C8
:100AE40003054822E54CB4020AE548C394025003C6
:100AF400054822E4F54822054CE54CD39402400312
:100B0400E4F54CE54C64017046F54922E53430E1E6
:100B140027E548700CE54C6003B402057548018074
:100B240017E5486013E54C7008FDAF48120BD380FD
:100B340007E4FDAF48120D18E53430E212E54860D1
:100B44000EE54C7D01AF487003020BD3120D182241
:10091200E4FF7E01E54C64017027E549900E2793C0
:1009220024D0F537E549A39324D0F538E549A393BC
:1009320024D0F539E549A39324D0F53AE4FE02091F
:10094200E3E54C706AE54864036025E5487004E518
:100952004D701DE52575F00A84F537E52575F00A19
:100962008485F038E53075F00A84F539E530801B6E
:10097200E53075F00A84F537E53075F00A8485F0C4
:1009820038E52F75F00A84F539E52F75F00A84856C
:10099200F03AE54870047D0280027D01AE05E5482B
:1009A200B401047F03803AE54860367F0C8032E56B
:1009B2002675F00A84F537E52675F00A8485F03845
:1009C200E53175F00A84F539E53175F00A8485F070
:1009D2003AE548B401047F038007E548B402027F88
:1009E2000C853A3E8F3F8E40AB39AD38AF37020DA2
:0109F200E321
:0B0E5A003F065B4F666D7D077F6F0059
:100C470075A0FFD2C2D2C1D2B7D2B6D2C4D2C5D252
:100C5700B5E4F5957596FF53B11F43B2E053B3C999
:100C670043B436538FFE75250CF530F52FF532F565
:100C77003375260775311EC200F52BF52C75270A2B
:100C870075280A75290A752A0AF521F523F522F52B
:100C97002DF52ED201F524C202C203C28C438E80E9
:100CA7005389F0758ACD758CD4C28DD2B9D2A9D2A9
:020CB7008C228D
:0D0E3400200202C322C2AFC202D2AFD322FD
:0D0E4100200302C322C2AFC203D2AFD322EE
:100DE300C2AF8F278D288B29853E2A853F218540D9
:040DF30023D2AF2236
:100E0700C2AF8F258D308B2FE4F532F533D2AF2269
:100BD300C2AFED6033BF010F0525AE25EEC39418F8
:100BE300405AE4F5258055BF020F0530AE30EEC301
:100BF300943C4048E4F5308043052FAE2FEEC39478
:100C03003C4039E4F52F8034BF0110E52570047EA4
:100C1300178004E52514FE8E258021BF0210E530E0
:100C230070047F3B8004E53014FF8F30800EE52F86
:100C330070047F3B8004E52F14FF8F2FE4F532F51A
:040C430033D2AF22D7
:100D1800ED601DBF010D0526E526C394184031E49A
:100D2800F526220531E531C3943C4024E4F531220F
:100D3800BF010FE52670047F178004E52614FF8F96
:100D48002622E53170047F3B8004E53114FF8F31A2
:010D58002278
:080E6500E4F52BF52CD200226C
:050E6D00C200D2B52215
:03000B00020800E8
:0B080000C0E0C083C082C0D075D008EB
:10080B00D2C2D2C1D2B7D2B675A0FF74272522F8B7
:10081B00E6900E5A93FD20011B7E007401A822085E
:10082B008005C333CE33CED8F9FFAC21ECFBEF5BA5
:10083B0060027D00EDF4F5A0E5227004C2C28014C5
:10084B00E522B40104C2C1800BE522B40204C2B795
:10085B008002C2B60522E522C39404400375220030
:10086B00052EE52E7002052DC394F4E52D94014061
:10087B0008752D00752E00B201E523B40104C2C426
:10088B008012E523B4020B300103C38001D392C461
:10089B008002D2C40533E53370020532AE32C39405
:1008AB00E8EE9403402C753200753300D203052F0C
:1008BB00AF2FEF943C401B752F000530AF30EF94FA
:1008CB003C400F7530000525AF25EF94184003759C
:1008DB002500300019B2B5052CE52C7002052BAEA6
:1008EB002BC39430EE94754007120E6D8002D2B577
:0E08FB000524E524C3940A4005752400D202AA
:09090900D0D0D082D083D0E032BE
:100E1700D293D294D2955391C75392C7E4F518222F
:100B5400E4FF2093010F20940343070220950343ED
:100B64000704E4FEFDA8057401088002C333D8FC21
:100B7400FC5518FBEF5CFAB50304741C8028741C44
:100B84002DF806E6C394034021741C2DF8E4F6EA1C
:100B9400600EEC421874192DF8E4F6EC4206800A53
:100BA400ECF4521874192DF8E4F6ED6019E5185CAC
:100BB400601474192DF806E6C3943C4009EC42060F
:0E0BC40074192DF876300DED64037099AF06AC
:010BD2002200
:100DB000E4F544C204759850438E01438E0475D700
:0A0DC000E875D6FF438E10D2AC2276
:100DCA00A807200402C322C2AFA643A805A642A8C8
:090DDA0003A641C204D2AFD322EA
:030023000209F3DC
:0909F300C0E0C0F0C0D075D010C6
:1009FC00209803020AB8C298AF99E544700EEF64D0
:100A0C00016003020AB8754401020AB8E544D394A4
:100A1C0003500DAE4474442EF8A6170544020AB8D0
:100A2C00754400EF64AA6003020AB8E545540FD37D
:100A3C0094095078E545C4540F9409506FE5465419
:100A4C000F94095067E546C4540F9409505EE5476E
:100A5C00540F94095056E547C4540F9409504DE572
:100A6C0045C4540F75F00AA4FFE545540F2FFFE55C
:100A7C0046C4540F75F00AA4FEE546540F2EFEE54D
:100A8C0047C4540F75F00AA4FDE547540F2DFDEF34
:100A9C00C394185017EEC3943C5011EDC3943C50C2
:100AAC000B8F438E428D41D204759906309902C248
:010ABC0099A0
:070ABD00D0D0D0F0D0E032F0
:03000000020E4E9F
:0C0E4E00787FE4F6D8FD75814D020D9010
:00000001FF
