:100C8800C2AF1205EA120555120D9C120E71120D13
:100C98004CD2AF120E2B12077C120F02500612060E
:090CA8007B120A1E12070280ED06
:0D0EAD0032303234333631303031333500DD
:1000030075F00A8485F0432275F00A84F54222755F
:06001300F00A84F544220E
:100E2B00E4F566F562F567F563D208F564F56502DE
:020E3B0002981B
:10077C007F3D7D3E7B3F120D835018200003120FEE
:10078C0014AB3FAD3EAF3D120E61120F1CE4F5668B
:10079C001207EB7F407D3D7B3E754541120CF750B7
:1007AC001C200003120F14854145AB3EAD3DAF40FC
:1007BC00120D14120F1C756602E41207EB120F0BCC
:1007CC00E433601AE5667006300803120F22E53632
:0E07DC00700CAD3AAF29120D305003120DDE35
:0B07EA0022F562F564F565120298220A
:100A1E00EF60031203A30565E56570020564E566E4
:100A2E00B40123E56320E71EC3E5659446E56494AF
:100A3E00004013E4F564F5650563E563D39408405F
:100A4E0029E4F5638024E5667020E562701CC3E539
:100A5E0065942CE56494014011E4F564F565E56751
:0D0A6E0070047F0180027F008F67020298F4
:1003A3008F3D30000302001EE4F564F565E53D3042
:1003B300E04DE5626031E566700AE562C39403507F
:1003C30003056222E566B40215E562C39403500E89
:1003D3000562E56264036003020485020482120F6E
:1003E3001CE4F562020F140566E566D3940340032B
:1003F300E4F566E56664016003020485F56322E5BE
:100403003D30E12FE562700CE5666003B4020575CB
:100413006201801FE562601BE5667008FDAF621232
:1004230008E1800FE4FDAF621207F5E562B4030350
:10043300120486E53D30E226E5627022E56670032C
:10044300B20822E566B4010DE56330E704E4F56321
:100453002275638822E56664027027020EBAE53DC1
:10046300540C601EE562601AE56670077D01AF6299
:100473000208E17D01AF621207F5E562B4030312DE
:10048300048622742F252EF8E6FF7D707C17120C4C
:02049300B12294
:10029800E4F5467F01E56664017027E563547FFF56
:1002A800900EAD9324D0F542EFA39324D0F543EFFD
:1002B800A39324D0F544EFA39324D0F545E4FF029B
:1002C8000392E5667052E5626403601BE5627004A0
:1002D800E5677013E52912000BE529120003E53ADA
:1002E800120012E53A8011E53A12000BE53A1200C5
:1002F80003E536120012E53675F00A8485F045E507
:100308006270047E0280027E01AF06E562B40102DB
:100318008053E56260748058E56664027057E56250
:10032800B4031B75420CE52E04F54375440D742F78
:10033800252EF8E604F545754608E4FF804C74243C
:10034800252EF8E6FE7437252EF8E6FDEE12000B92
:10035800EE120003ED120012ED75F00A8485F045E7
:10036800E562B401057546038020E5626402701AEF
:1003780075460C80157F471209BBEF12000BEF1270
:10038800000385474475450B7F0385454B85464CDF
:0B0398008F4DAB44AD43AF42020DCAD5
:0E0E9F003F065B4F666D7D077F6F0039774021
:1005EA0075A0FFD2C2D2C1D2B7D2B6D2C4D2C5D2B6
:1005FA00B5E4F5957596FF53B11F43B2E053B3C9FD
:10060A0043B4364391015392FE759D0175BC8053E4
:10061A008FFE75290CF53AF536F53BF53C7524083D
:10062A00F53775250CF538752610F539F52F75301F
:10063A0001753102F52EC200F532F533752A0A75B5
:10064A002B0A752C0A752D0AF522F527F523F534A0
:10065A00F535D201F528C202C203C28E438E405339
:10066A00890F758BCD758DD4C28FD2BBD2ABD28E8A
:01067A00225D
:090F0200200202C322C202D32224
:090F0B00200302C322C203D32219
:0209BB00A9078A
:1009BD0075BC88E5BC30E4FB53BCEFAFBDEF75F003
:1009CD0004A4FFADBEEF4DFDACF0ECC4F854F0C87F
:1009DD0068FEEDC4540F48FFC3ED9FFDEC9EFCC3B4
:1009ED00ED94E6EC940050047C007DE6741A2DFD28
:1009FD0074FF3CFCE4FFC3ED940AEC9400400B74CF
:100A0D00F62DFD74FF3CFC0F80ECAE05A801A6068B
:010A1D0022B6
:100DCA00C2AF8F2A8D2B8B2C854B2D854C22854DBE
:040DDA0027D2AF224B
:100E6100C2AF8F298D3A8B36E4F53BF53CD2AF22E8
:1008E100C2AFED6033BF010F0529AE29EEC39418E5
:1008F100405AE4F5298055BF020F053AAE3AEEC3DE
:10090100943C4048E4F53A80430536AE36EEC39454
:100911003C4039E4F5368034BF0110E52970047E8E
:10092100178004E52914FE8E298021BF0210E53AC3
:1009310070047F3B8004E53A14FF8F3A800EE53660
:1009410070047F3B8004E53614FF8F36E4F53BF5F8
:040951003CD2AF22C3
:1007F500EF6403702AED6014742F252EF806E6C306
:1008050094034061742F252EF8E4F622742F252ECB
:10081500F8E6FE70047E028003EE14FEA60622BFF3
:100825000104742480027437252EFEA806ED601796
:10083500BF010A06E6C39418402BE4F62206E6C378
:10084500943C4021E4F622BF010EE6FF70047F17B9
:100855008003EF14FFA60722E6FF70047F3B8003A9
:05086500EF14FFA607DF
:01086A00226B
:100D140074242FF8A60574372FF8A603E545C39469
:0C0D2400035006742F2FF8A6458F2E22D6
:0D0EBA00052EE52EC394034003E4F52E221F
:100D3000E4FE74242EF8E6B5070C74372EF8E6B5F9
:0B0D400005048E2ED3220EBE03E8C374
:010D4B002285
:100DDE00E4F532F533D200742F252EF8E6FFE4FD4C
:040DEE00FC020CB146
:030F2200020E3D7F
:05001E00C200020F14F6
:03001B0002017867
:0D017800C0E0C0F0C083C082C0D075D008C8
:10018500D2C2D2C1D2B7D2B675A0FF742A2523F840
:10019500E6900E9F93FD20011B7E007401A82308A5
:1001A5008005C333CE33CED8F9FFAC22ECFBEF5B31
:1001B50060027D00E527B40308E523B40103430D80
:1001C50080EDF4F5A0E5237004C2C28014E523B4E4
:1001D5000104C2C1800BE523B40204C2B78002C288
:1001E500B60523E523C3940440037523000535E5CF
:1001F5003570020534C394F4E53494014008753430
:1002050000753500B201E527B40104C2C48012E5CA
:1002150027B4020B300103C38001D392C48002D2FC
:10022500C4053CE53C7002053BAE3BC394E8EE9447
:1002350003402C753B00753C00D2030536AF36EF05
:10024500943C401B753600053AAF3AEF943C400F9D
:10025500753A000529AF29EF941840037529001256
:100265000A7B3000150533E53370020532AE32C323
:100275009430EE9475400312001E0528E528C394BA
:080285000A4005752800D202B1
:0B028D00D0D0D082D083D0F0D0E0327F
:100E7100D293D294D2955391C75392C7E4F55B2292
:10067B00E4FF2093010F20940343070220950343CB
:10068B000704E4FEFDA8057401088002C333D8FCFF
:10069B00FC555BFBEF5CFAB50304745F8028745F59
:1006AB002DF806E6C394034021745F2DF8E4F6EAB7
:1006BB00600EEC425B745C2DF8E4F6EC4206800AAB
:1006CB00ECF4525B745C2DF8E4F6ED6021E55B5CB9
:1006DB00601C745C2DF806E6C3943C4011BC040509
:1006EB004306088003EC4206745C2DF876300DED62
:0606FB0064037091AF06DC
:0107010022D5
:100C0100E556C4540F75F00AA4FFE556540F2FFDA5
:100C1100E557C4540F75F00AA4FF22E557540F2F6E
:100C2100FEEDC3941822E55514F5528D548E5122D0
:100DF200EF540FD394095009EFC4540F94095001D2
:030E020022C322E6
:100D4C00E4F55AC205C204759850438E01438E04D3
:0C0D5C0075D7E875D6FF438E10D2AC228C
:100CF700A807200402C322C2AFA652A805A654A87B
:0D0D070003A651A845A64EC204D2AFD322C8
:100D8300A807200502C322C2AFA659A805A653A8E7
:090D930003A64FC205D2AFD32222
:03002300020026B2
:09002600C0E0C0F0C0D075D0109C
:10002F0020980302016CC298AC99E55A701AECC380
:10003F009401500302016CECD39403400302016C52
:10004F008C50755A0102016CE550B403047F048093
:10005F00027F03E55AD39F500DAF5A74542FF8A661
:10006F0014055A02016C755A00EC64AA7060E550D1
:10007F006401705AAF55120DF25053AF56120DF274
:10008F00504CAF57120DF25045E555120C13E55574
:10009F00540F2FFDE556120C13E556540F2FFE1279
:1000AF000C11E557540F2FFFEDC3941840030201B5
:1000BF006CEEC3943C400302016CEFC3943C4003CD
:1000CF0002016C8D598E538F4FD205020169EC647A
:1000DF00AA703AE55064027034E555C39401402D7F
:1000EF00E555D394035026AF56120DF2501FAF575C
:1000FF00120DF25018120C01120C1C5060EEC3942A
:10010F003C505A120C27754EFFD204804DEC64AA56
:10011F00704BE55064037045E555C39401403EE5CF
:10012F0055D394035037E558C394014030E558D365
:10013F0094035029AF56120DF25022AF57120DF201
:10014F00501B120C01120C1C5013EEC3943C500D9B
:10015F00120C27E55814F54ED20475990630990202
:02016F00C29933
:07017100D0D0D0F0D0E03245
:1004950003080308040806080608040803080208F8
:1004A5000108010802080308030C020402100004F5
:1004B50003080308040806080608040803080208D8
:1004C5000108010802080308020C010401100006D6
:1004D500070408040908080409080A08080C0304A5
:1004E5000704060807040908060C030404040308A6
:1004F50004040908030C090409040808050805048F
:100505000808080C00040706060603060206060688
:100515000706060C07060206030606060712070667
:1005250006060306020606060706060C0706020669
:100535000306060607120004004076A8D6B4DB348D
:10054500DF3AE10EE2D0E473E775EA24EB5FEFA052
:0B0EEC00C2AB120ED4C206E4F51B22BC
:0C0ED400538FFEC28CC28DC207D2B52223
:0F0E8100120ED48F8A8E8CD207D28C438F01220F
:100AC700E51AC39519400385181AAF1A051AEF904E
:100AD700049593FBAF1A051AEF93FF7E007C007D08
:100AE70032120E4F8E1E8F1F120ED4EB601525E0AB
:100AF700243FF582E43405F583E493FE740193FF04
:030B0700120E814A
:010B0A0022C8
:100D9C00C2A9C28C5389F0438E80C28D538FFEC280
:090DAC0007C206E4F51BD2B522D2
:100CB100EFC394034002E4FF120EECEF90053D9365
:100CC100F518EFA393F51985181A8C1C8D1DD20602
:060CD100120AC7D2AB229B
:100E3D0020060EC2AB751B287FCD7ED4120E81D23B
:020E4D00AB22D6
:080F1400120EECD2B5D2AB22A3
:100A7B0020060DE51B6044151BE51B703E020ED4D2
:100A8B00E51D451C6010E51D151D7002151C144558
:100A9B001C7003020F14E51F451E601FE51F151F79
:100AAB007002151EE51F6419451E700630070312F0
:0C0ABB000ED4E51F451E7003120AC7226E
:100B8D00EF75F003A42409FE2400F582E43400F58A
:100B9D00832274012EF582E43400F5832274022E33
:100BAD00F582E43400F583228FC48EC375C65A7561
:0E0BBD00C6A522A2AFE433FDC2AF75C78322E6
:0D0EC700E4F5C7F5C5F5C675C380F5C42276
:060D6800EC2BFFE43AFE53
:100D6E00120BC075C501120BB500AFC2120EC7ED46
:040D7E0024FF92AF0D
:010D8200224E
:100CD700A2AFE433F9C2AF75C78375C5028FC48E5F
:0F0CE700C38DC2120BB900120EC7E924FF92AFE2
:010CF60022DB
:100E0500120BC075C503120BB500120EC7ED24FFFA
:020E150092AF9A
:010E170022B8
:100C3100E4FEFDEDC39F502174002D120B97E0627D
:100C410006E4FCEE30E70725E06407FE8004EE25AC
:0B0C5100E0FE0CBC08ED0D80DAAF06E1
:010C5C002275
:100B4F00900006E0C39418500EA3E0C3943C5007E6
:100B5F00A3E0C3943C4002C322E4FF120B8DE0C319
:100B6F0094185012120B9FE0C3943C5009120BAA19
:0D0B7F00E0C394034002C3220FBF03DFD385
:010B8C002246
:06095500AB07AA06A9058C
:10095B00EB2413120D6AEF64A56002C322E4FC12B0
:10096B000D6874002C120B97EFF00CBC14F1900077
:10097B0000E064437023A3E0644B701DA3E0B4015B
:10098B0018900013E0B4A5117F12120C31900012D5
:10099B00E0B50705120B4F4002C322900005E0FEA5
:0F09AB00900004E0FDEDFFA801A60608A607D303
:0109BA00221A
:100E1800C3EF9DFFEE9CFE4F6007C3EE9480500128
:020E280022C3E3
:010E2A0022A5
:040DB500AB07AA06D8
:100DB900E4FC120D68EFF46002C3220CBC14F3D3F7
:010DC9002207
:0B0EF700EF7003FEFF227E027F00224E
:100C5D00120EF78F828E83E4F9AF82AE83120DB53B
:100C6D005005AF82AE832274142582F582E435835C
:0A0C7D00F58309B919E37EFF7FFF3C
:010C8700224A
:100BCB00900006E0F529A3E0F53AA3E0F536E4FF43
:100BDB00120B8DE0FD74242FF8A605120B9FE0FD80
:100BEB0074372FF8A605120BAAE0FD742F2FF8A669
:050BFB00050FBF03DB44
:010C000022D1
:10086B009000007443F0A3744BF0A37401F0E4A365
:10087B00F0A3EFF0A3EEF0A2AFE433FFC2AFA3E51A
:10088B0029F0A3E53AF0A3E536F0E4FEEE75F003AC
:10089B00A42409FD74242EF8E6FC74002D120B978A
:1008AB00ECF074372EF8E6FC74012D120BA2ECF071
:1008BB00742F2EF8E6FC74022D120BADECF00EBE6D
:1008CB0003CAEF24FF92AF7F12120C31900012EF8C
:0508DB00F0A374A5F07C
:0108E00022F5
:080B0B008C408D41AB07AA06E6
:100B1300E4FCEC2BFFE43AFE74002C120B97E0FD8F
:100B2300120CD70CBC13EBEB2413FFE43AFE7DA5A8
:100B3300120CD7AF03AE027D42120955500CE543A8
:0B0B4300B54107E542B54002D322C3D4
:010B4E002284
:0F0E9000056BE56BC394034005E4F56BC20922C3
:10055500120EC7C209E4F56B7568FFF569F56AF512
:100565003FF540F545F546F547F548F53DAF3D12F4
:100575000EF78E418F42E4F53E7D43AF42AE411208
:1005850009555023E53F600DAD48AC47AF44AE4338
:10059500120E185012753F01853D40854145854233
:1005A5004685434785444874142542F542E4354160
:1005B500F541053EE53EC3941940BE053DE53DC305
:1005C500940240A9E53F601C7D43AF46AE45120944
:1005D500555011120BCB854068E5482401F56AE4B6
:0405E5003547F56938
:0105E90022EF
:060F1C00E4F56BD209228E
:10070200300976E568C39402500BAF68120C5D8E17
:100712003E8F3F800674FFF53EF53FE53FF47003E0
:10072200E53EF4701DE56870047F0180027F008F52
:100732003D120EF7120E05AF3D120C5D8E3E8F3F3D
:10074200800385683DE53FB4FF07E53EB4FF0280C4
:1007520025AF6AAE6912086BAD6AAC69AF3FAE3EB7
:10076200120B0B5011853D68056AE56A7002056936
:09077200E4F56BC20922120E909D
:01077B00225B
:03000000020EE00D
:0C0EE000787FE4F6D8FD75816B020C8869
:100E4F00EF8DF0A4A8F0CF8CF0A428CE8DF0A42EB7
:020E5F00FE2271
:00000001FF
