:1009B800C2AF12059D120A65120AFF120A30D2AFA1
:1009C800120AB912079F120B6950F812062E120864
:0309D8007580F037
:0D0B2C003230323433363130303133350061
:1000030075F00A8485F0432275F00A84F54222755F
:06001300F00A84F544220E
:100AB900E4F566F562F567F563D208F564F5650254
:020AC900029891
:10079F007F3D7D3E7B3F120A4C5015200003120B0C
:1007AF007BAB3FAD3EAF3D120AEFE4F56612080892
:1007BF007F407D3D7B3E7545411209DB501920007E
:1007CF0003120B7B854145AB3EAD3DAF401209F89F
:1007DF00756602E4120808120B72E433601AE566BC
:1007EF007006300803120B83E536700CAD3AAF2953
:0807FF00120A145003120A92C1
:0B08070022F562F564F56512029822EC
:10087500EF60031204AE0565E56570020564E56683
:10088500B40123E56320E71EC3E5659446E564945A
:10089500004013E4F564F5650563E563D39408400A
:1008A50029E4F5638024E5667020E562701CC3E5E4
:1008B50065942CE56494014011E4F564F565E567FC
:0D08C50070047F0180027F008F670202989F
:1004AE008F3D30000302001EE4F564F565E53D3036
:1004BE00E04AE562602EE566700AE562C394035079
:1004CE0003056222E566B40215E562C39403500E7D
:1004DE000562E5626403600302058D02058AE4F598
:1004EE0062020B7B0566E566D394034003E4F56672
:1004FE00E5666401600302058DF56322E53D30E19A
:10050E002FE562700CE5666003B40205756201802A
:10051E001FE562601BE5667008FDAF6212072B8057
:10052E000FE4FDAF621206B5E562B4030312058E49
:10053E00E53D30E226E5627022E5667003B20822E0
:10054E00E566B4010DE56330E704E4F563227563F7
:10055E008822E56664027027020B39E53D540C6073
:10056E001EE562601AE56670077D01AF6202072B19
:10057E007D01AF621206B5E562B4030312058E2249
:0F058E00742F252EF8E6FF7D707C17120992223C
:10029800E4F5467F01E56664017027E563547FFF56
:1002A800900B2C9324D0F542EFA39324D0F543EF81
:1002B800A39324D0F544EFA39324D0F545E4FF029B
:1002C8000392E5667052E5626403601BE5627004A0
:1002D800E5677013E52912000BE529120003E53ADA
:1002E800120012E53A8011E53A12000BE53A1200C5
:1002F80003E536120012E53675F00A8485F045E507
:100308006270047E0280027E01AF06E562B40102DB
:100318008053E56260748058E56664027057E56250
:10032800B4031B75420CE52E04F54375440D742F78
:10033800252EF8E604F545754608E4FF804C74243C
:10034800252EF8E6FE7437252EF8E6FDEE12000B92
:10035800EE120003ED120012ED75F00A8485F045E7
:10036800E562B401057546038020E5626402701AEF
:1003780075460C80157F47120812EF12000BEF121A
:10038800000385474475450B7F0385454B85464CDF
:0B0398008F4DAB44AD43AF42020A7E24
:0E0B1E003F065B4F666D7D077F6F00397740A5
:10059D0075A0FFD2C2D2C1D2B7D2B6D2C4D2C5D203
:1005AD00B5E4F5957596FF53B11F43B2E053B3C94A
:1005BD0043B4364391015392FE759D0175BC805332
:1005CD008FFE75290CF53AF536F53BF53C7524088B
:1005DD00F53775250CF538752610F539F52F75306D
:1005ED0001753102F52EC200F532F533752A0A7503
:1005FD002B0A752C0A752D0AF522F527F523F534EE
:10060D00F535D201F528C202C203C28E438E405386
:10061D00890F758BCD758DD4C28FD2BBD2ABD28ED7
:01062D0022AA
:090B6900200202C322C202D322C1
:090B7200200302C322C203D322B6
:02081200A90734
:1008140075BC88E5BC30E4FB53BCEFAFBDEF75F0AD
:1008240004A4FFADBEEF4DFDACF0ECC4F854F0C829
:1008340068FEEDC4540F48FFC3ED9FFDEC9EFCC35E
:10084400ED94E6EC940050047C007DE6741A2DFDD2
:1008540074FF3CFCE4FFC3ED940AEC9400400B7479
:10086400F62DFD74FF3CFC0F80ECAE05A801A60636
:010874002261
:100A7E00C2AF8F2A8D2B8B2C854B2D854C22854D0D
:040A8E0027D2AF229A
:100AEF00C2AF8F298D3A8B36E4F53BF53CD2AF225E
:10072B00C2AFED6033BF010F0529AE29EEC394189C
:10073B00405AE4F5298055BF020F053AAE3AEEC395
:10074B00943C4048E4F53A80430536AE36EEC3940C
:10075B003C4039E4F5368034BF0110E52970047E46
:10076B00178004E52914FE8E298021BF0210E53A7B
:10077B0070047F3B8004E53A14FF8F3A800EE53618
:10078B0070047F3B8004E53614FF8F36E4F53BF5B0
:04079B003CD2AF227B
:1006B500EF6403702AED6014742F252EF806E6C347
:1006C50094044061742F252EF8E4F622742F252E0C
:1006D500F8E6FE70047E038003EE14FEA60622BF34
:1006E5000104742480027437252EFEA806ED6017D8
:1006F500BF010A06E6C39418402BE4F62206E6C3BA
:10070500943C4021E4F622BF010EE6FF70047F17FA
:100715008003EF14FFA60722E6FF70047F3B8003EA
:05072500EF14FFA60720
:01072A0022AC
:1009F80074242FF8A60574372FF8A603E545C39489
:0C0A0800045006742F2FF8A6458F2E22F4
:0D0B3900052EE52EC394034003E4F52E22A3
:100A1400E4FE74242EF8E6B5070C74372EF8E6B518
:0B0A240005048E2ED3220EBE03E8C393
:010A2F0022A4
:100A9200E4F532F533D200742F252EF8E6FFE4FD9B
:040AA200FC020992B7
:030B8300020ACB98
:05001E00C200020B7B93
:03001B0002017867
:0D017800C0E0C0F0C083C082C0D075D008C8
:10018500D2C2D2C1D2B7D2B675A0FF742A2523F840
:10019500E6900B1E93FD20011B7E007401A8230829
:1001A5008005C333CE33CED8F9FFAC22ECFBEF5B31
:1001B50060027D00E527B40308E523B40103430D80
:1001C50080EDF4F5A0E5237004C2C28014E523B4E4
:1001D5000104C2C1800BE523B40204C2B78002C288
:1001E500B60523E523C3940440037523000535E5CF
:1001F5003570020534C394F4E53494014008753430
:1002050000753500B201E527B40104C2C48012E5CA
:1002150027B4020B300103C38001D392C48002D2FC
:10022500C4053CE53C7002053BAE3BC394E8EE9447
:1002350003402C753B00753C00D2030536AF36EF05
:10024500943C401B753600053AAF3AEF943C400F9D
:10025500753A000529AF29EF941840037529001256
:1002650008D23000150533E53370020532AE32C3CE
:100275009430EE9475400312001E0528E528C394BA
:080285000A4005752800D202B1
:0B028D00D0D0D082D083D0F0D0E0327F
:100AFF00D293D294D2955391C75392C7E4F55B2208
:10062E00E4FF2093010F2094034307022095034318
:10063E000704E4FEFDA8057401088002C333D8FC4C
:10064E00FC555BFBEF5CFAB50304745F8028745FA6
:10065E002DF806E6C394034021745F2DF8E4F6EA04
:10066E00600EEC425B745C2DF8E4F6EC4206800AF8
:10067E00ECF4525B745C2DF8E4F6ED6021E55B5C06
:10068E00601C745C2DF806E6C3943C4011BC040556
:10069E004306088003EC4206745C2DF876300DEDAF
:0606AE0064037091AF0629
:0106B4002223
:10096200E556C4540F75F00AA4FFE556540F2FFD47
:10097200E557C4540F75F00AA4FF22E557540F2F10
:10098200FEEDC3941822E55514F5528D548E512272
:100AA600EF540FD394095009EFC4540F9409500121
:030AB60022C32236
:100A3000E4F55AC205C204759850438E01438E04F2
:0C0A400075D7E875D6FF438E10D2AC22AB
:1009DB00A807200402C322C2AFA652A805A654A89A
:0D09EB0003A651A845A64EC204D2AFD322E8
:100A4C00A807200502C322C2AFA659A805A653A821
:090A5C0003A64FC205D2AFD3225C
:03002300020026B2
:09002600C0E0C0F0C0D075D0109C
:10002F0020980302016CC298AC99E55A701AECC380
:10003F009401500302016CECD39403400302016C52
:10004F008C50755A0102016CE550B403047F048093
:10005F00027F03E55AD39F500DAF5A74542FF8A661
:10006F0014055A02016C755A00EC64AA7060E550D1
:10007F006401705AAF55120AA65053AF56120AA612
:10008F00504CAF57120AA65045E555120974E55565
:10009F00540F2FFDE556120974E556540F2FFE121B
:1000AF000972E557540F2FFFEDC394184003020157
:1000BF006CEEC3943C400302016CEFC3943C4003CD
:1000CF0002016C8D598E538F4FD205020169EC647A
:1000DF00AA703AE55064027034E555C39401402D7F
:1000EF00E555D394035026AF56120AA6501FAF57AB
:1000FF00120AA6501812096212097D5060EEC394BD
:10010F003C505A120988754EFFD204804DEC64AAF8
:10011F00704BE55064037045E555C39401403EE5CF
:10012F0055D394035037E558C394014030E558D365
:10013F0094045029AF56120AA65022AF57120AA69E
:10014F00501B12096212097D5013EEC3943C500DDF
:10015F00120988E55814F54ED204759906309902A4
:02016F00C29933
:07017100D0D0D0F0D0E03245
:1003A30005080508060808080808060805080308DC
:1003B3000108010803080508050C030403100004E1
:1003C30005080508060808080808060805080308BC
:1003D3000108010803080508030C010401100006C5
:1003E3000A040C040D080C040D0811080C0C050478
:1003F3000A0408080A040D08080C05040604050885
:1004030006040D08050C0D040D040C080708070469
:100413000C080C0C00040404060404040B08040870
:100423000B0404040608040406040908060404046F
:10043300060804040B080E040E040D080908060C34
:1004430000040A0608060506030608060A06080C41
:100453000A060306050608060A120A060806050622
:10046300030608060A06080C0A060306050608061C
:100473000A120004004076A2D4D6B4D903DB34DDDB
:1004830046DF3AE10EE2D0E473E602E775E8D3EA29
:1004930024EB5FEC86ED9EEEA7EFA0F08AF168F205
:0B04A3003AF2FFF3BBF46CF512F5AF6A
:0B0B5E00C2AB120B46C206E4F51B22DE
:0C0B4600538FFEC28CC28DC207D2B522B4
:0F0B0F00120B468F8A8E8CD207D28C438F012215
:10091E00E51AC39519400385181AAF1A051AEF90F8
:10092E0003A393FBAF1A051AEF93FF7E007C007DA5
:10093E0032120ADD8E1E8F1F120B46EB601525E05C
:10094E00247AF582E43404F583E493FE740193FF74
:03095E00120B0F6A
:010961002273
:100A6500C2A9C28C5389F0438E80C28D538FFEC2BA
:090A750007C206E4F51BD2B5220C
:10099200EFC394044002E4FF120B5EEF90047793DE
:1009A200F518EFA393F51985181A8C1C8D1DD20624
:0609B20012091ED2AB2267
:100ACB0020060EC2AB751B287FCD7ED4120B0FD226
:020ADB00AB224C
:080B7B00120B5ED2B5D2AB22D1
:1008D20020060DE51B6044151BE51B703E020B460E
:1008E200E51D451C6010E51D151D7002151C144503
:1008F2001C7003020B7BE51F451E601FE51F151FC1
:100902007002151EE51F6419451E7006300703129A
:0C0912000B46E51F451E700312091E2253
:03000000020B529E
:0C0B5200787FE4F6D8FD7581670209B8D1
:100ADD00EF8DF0A4A8F0CF8CF0A428CE8DF0A42E2D
:020AED00FE22E7
:00000001FF
