:10096600C2AF120559120A13120AC51209DED2AF16
:10097600120A9112075D120B0950F81205EC1208C3
:030986003380F0CB
:0D000E00323032343336313030313335008A
:100A2B0075F00A8485F0432275F00A84F54222752D
:060A3B00F00A84F54422DC
:100A9100E4F568F564F569F565D206F566F5670272
:020AA10002AFA2
:10075D007F3D7D3E7B3F1209FA5015200003120AA2
:10076D00F0AB3FAD3EAF3D120AB5E4F5681207C6DA
:10077D007F407D3D7B3E7545411209895019200012
:10078D0003120AF0854145AB3EAD3DAF401209A6BF
:10079D00756802E41207C6120B12E433601AE5689D
:1007AD00700630060312001EE536700CAD3AAF2808
:0807BD001209C25003120A41A7
:0B07C50022F564F566F5671202AF2212
:10083300EF60031203BA0567E56770020566E568B2
:10084300B40123E56520E71EC3E5679446E5669496
:10085300004013E4F566F5670565E565D394084044
:1008630029E4F5658024E5687020E564701CC3E520
:1008730067942CE56694014011E4F566F567E56934
:0D08830070047F0180027F008F690202AFC8
:1003BA008F3D300003020003E4F566F567E53D3042
:1003CA00E04AE564602EE568700AE564C394035068
:1003DA0003056422E568B40215E564C39403500E6C
:1003EA000564E56464036003020499020496E4F573
:1003FA0064020AF00568E568D394034003E4F568EB
:10040A00E56864016003020499F56522E53D30E17F
:10041A002FE564700CE5686003B402057564018019
:10042A001FE564601BE5687008FDAF641206E98089
:10043A000FE4FDAF64120673E564B4030312049A71
:10044A00E53D30E226E5647022E5687003B20622D3
:10045A00E568B4010DE56530E704E4F565227565E4
:10046A008822E56864027027020AE3E53D540C60BD
:10047A001EE564601AE56870077D01AF640206E94B
:10048A007D01AF64120673E564B4030312049A2271
:0F049A00742E252DF8E6FF7DB87C0B1209412248
:1002AF00E4F5467F01E56864017027E565547FFF3B
:1002BF0090000E9324D0F542EFA39324D0F543EF93
:1002CF00A39324D0F544EFA39324D0F545E4FF0284
:1002DF0003A9E5687052E5646403601BE56470046C
:1002EF00E5697013E528120A33E528120A2BE53A5F
:1002FF00120A3AE53A8011E53A120A33E53A120A40
:10030F002BE536120A3AE53675F00A8485F045E595
:10031F006470047E0280027E01AF06E564B40102C0
:10032F008053E56460748058E56864027057E56433
:10033F00B4031B75420CE52D04F54375440D742E63
:10034F00252DF8E604F545754608E4FF804C742327
:10035F00252DF8E6FE7437252DF8E6FDEE120A334B
:10036F00EE120A2BED120A3AED75F00A8485F0456C
:10037F00E564B401057546038020E5646402701AD4
:10038F0075460C80157F471207D0EF120A33EF1214
:10039F000A2B85474475450B7F0385454B85464C96
:0B03AF008F4DAB44AD43AF42020A5734
:0E0AD5003F065B4F666D7D077F6F00397740EF
:1005590075A0FFD2C2D2C1D2B7D2B6D2C4D2C5D247
:10056900B5E4F5957596FF53B11F43B2E053B3C98E
:1005790043B4364391015392FE759D0175BC805376
:100589008FFE75280CF53AF536F53BF53C752308D1
:10059900F53775240CF538752510F539F52E752FB5
:1005A90001753002F52DC200F531F532F5357529A1
:1005B9000A752A0A752B0A752C0AF521F526F522E2
:1005C900F533F534D201F527C202C203C28C438E3A
:1005D900805389F0758ACD758CD4C28DD2B9D2A9D0
:0305E900D28C228F
:090B0900200202C322C202D32221
:090B1200200302C322C203D32216
:0207D000A90777
:1007D20075BC88E5BC30E4FB53BCEFAFBDEF75F0F0
:1007E20004A4FFADBEEF4DFDACF0ECC4F854F0C86C
:1007F20068FEEDC4540F48FFC3ED9FFDEC9EFCC3A1
:10080200ED94E6EC940050047C007DE6741A2DFD14
:1008120074FF3CFCE4FFC3ED940AEC9400400B74BB
:10082200F62DFD74FF3CFC0F80ECAE05A801A60678
:0108320022A3
:100A5700C2AF8F298D2A8B2B854B2C854C21854D39
:040A670026D2AF22C2
:100AB500C2AF8F288D3A8B36E4F53BF53CD2AF2299
:1006E900C2AFED6033BF010F0528AE28EEC39418E1
:1006F900405AE4F5288055BF020F053AAE3AEEC3D9
:10070900943C4048E4F53A80430536AE36EEC3944E
:100719003C4039E4F5368034BF0110E52870047E89
:10072900178004E52814FE8E288021BF0210E53ABF
:1007390070047F3B8004E53A14FF8F3A800EE5365A
:1007490070047F3B8004E53614FF8F36E4F53BF5F2
:040759003CD2AF22BD
:10067300EF6403702AED6014742E252DF806E6C38B
:1006830094034061742E252DF8E4F622742E252D53
:10069300F8E6FE70047E028003EE14FEA60622BF77
:1006A3000104742380027437252DFEA806ED60171C
:1006B300BF010A06E6C39418402BE4F62206E6C3FC
:1006C300943C4021E4F622BF010EE6FF70047F173D
:1006D3008003EF14FFA60722E6FF70047F3B80032D
:0506E300EF14FFA60763
:0106E80022EF
:1009A60074232FF8A60574372FF8A603E545C394DC
:0C09B600035006742E2FF8A6458F2D224A
:0D0AE300052DE52DC394034003E4F52D22FD
:1009C200E4FE74232EF8E6B5070C74372EF8E6B56C
:0B09D20005048E2DD3220EBE03E8C3E7
:0109DD0022F7
:100A4100E4F535F531F532D200742E252DF8E6FFA7
:060A5100E4FDFC02094176
:04001E0075352822EA
:08000300C200120AF0D2B5227E
:03000B0002017877
:0D017800C0E0C0F0C083C082C0D075D008C8
:10018500D2C2D2C1D2B7D2B675A0FF74292522F842
:10019500E6900AD593FD20011B7E007401A8220874
:1001A5008005C333CE33CED8F9FFAC21ECFBEF5B32
:1001B50060027D00E526B40308E522B40103430D82
:1001C50080EDF4F5A0E5227004C2C28014E522B4E6
:1001D5000104C2C1800BE522B40204C2B78002C289
:1001E500B60522E522C3940440037522000534E5D3
:1001F5003470020533C394F4E53394014008753334
:1002050000753400B201E526B40104C2C48012E5CC
:1002150026B4020B300103C38001D392C48002D2FD
:10022500C4053CE53C7002053BAE3BC394E8EE9447
:1002350003402C753B00753C00D2030536AF36EF05
:10024500943C401B753600053AAF3AEF943C400F9D
:10025500753A000528AF28EF941840037528001259
:1002650009113000170532E53270020531AE31C390
:100275009430EE9475401A120003801520070DE5A1
:10028500356009B2B5D53509D2B58005200702D24A
:0F029500B50527E527C3940A4005752700D20257
:0B02A400D0D0D082D083D0F0D0E03268
:100AC500D293D294D2955391C75392C7E4F5182285
:1005EC00E4FF2093010F209403430702209503435B
:1005FC000704E4FEFDA8057401088002C333D8FC8F
:10060C00FC5518FBEF5CFAB50304741C8028741CB1
:10061C002DF806E6C394034021741C2DF8E4F6EA89
:10062C00600EEC421874192DF8E4F6EC4206800AC0
:10063C00ECF4521874192DF8E4F6ED6021E5185C11
:10064C00601C74192DF806E6C3943C4011BC0405DB
:10065C004306088003EC420674192DF876300DED34
:06066C0064037091AF066B
:010672002265
:1008E100E556C4540F75F00AA4FFE556540F2FFDC9
:1008F100E557C4540F75F00AA4FF22E557540F2F92
:10090100FEEDC3941822E55514F5528D548E5122F3
:100A6B00EF540FD394095009EFC4540F940950015C
:030A7B0022C32271
:1009DE00E4F55AC205C204759850438E01438E0445
:0C09EE0075D7E875D6FF438E10D2AC22FE
:10098900A807200402C322C2AFA652A805A654A8EC
:0D09990003A651A845A64EC204D2AFD3223A
:1009FA00A807200502C322C2AFA659A805A653A874
:090A0A0003A64FC205D2AFD322AE
:03002300020026B2
:09002600C0E0C0F0C0D075D0109C
:10002F0020980302016CC298AC99E55A701AECC380
:10003F009401500302016CECD39403400302016C52
:10004F008C50755A0102016CE550B403047F048093
:10005F00027F03E55AD39F500DAF5A74542FF8A661
:10006F0014055A02016C755A00EC64AA7060E550D1
:10007F006401705AAF55120A6B5053AF56120A6B88
:10008F00504CAF57120A6B5045E5551208F3E55522
:10009F00540F2FFDE5561208F3E556540F2FFE129D
:1000AF0008F1E557540F2FFFEDC3941840030201D9
:1000BF006CEEC3943C400302016CEFC3943C4003CD
:1000CF0002016C8D598E538F4FD205020169EC647A
:1000DF00AA703AE55064027034E555C39401402D7F
:1000EF00E555D394035026AF56120A6B501FAF57E6
:1000FF00120A6B50181208E11208FC5060EEC394FC
:10010F003C505A120907754EFFD204804DEC64AA79
:10011F00704BE55064037045E555C39401403EE5CF
:10012F0055D394035037E558C394014030E558D365
:10013F0094035029AF56120A6B5022AF57120A6B15
:10014F00501B1208E11208FC5013EEC3943C500DE3
:10015F00120907E55814F54ED20475990630990225
:02016F00C29933
:07017100D0D0D0F0D0E03245
:1004A900010601060506050606060606050C0002F4
:1004B900040604060306030602060206010C0004EC
:1004C90003060306040605060506040603060206D6
:1004D900010601060206030603090203020C0002D3
:1004E90003060306040605060506040603060206B6
:1004F900010601060206030602090103010C0004B4
:10050900050405040608050808080710050405047C
:100519000608050809080810050405040C080A0856
:100529000808070806100B040B040A08080809083C
:100539000810000400206094F922F9E1FA8CFAD835
:10054900FB69FBE9FC5CFC8FFCEFFD45FD6CFDB52F
:10089000E55FC3955C4003855B5FAF5F055FEF90ED
:1008A00004A993FBAF5F055FEF93FF7E007C007DA3
:1008B00032120AA38E628F63C28ED2B5EB602125FD
:1008C000E0243FF582E43405F583E493FE7401935C
:1008D000AC068C5DF55E855D8D855E8BC28FD28E9C
:0108E00022F5
:100A1300C28EE589540F4410F589538EBFC28FC22D
:080A2300BBD2ABC207D2B52221
:10094100EFC394034002E4FFC2ABEF90053D93F582
:100951005BEFA393F55C855B5F8C608D61D20712C1
:050961000890D2AB225A
:0D0AF000C2ABC28EC28FC207D2B5D2AB22FC
:1009110030072CE56145606010E5611561700215D5
:10092100601445607003020AF0E56345626010E5FA
:1009310063156370021562144562700312089022F8
:03001B00020A7E58
:100A7E00C28E200703D2B532855D8D855E8BB2B5F1
:030A8E00D28E32D3
:03000000020AFDF4
:0C0AFD00787FE4F6D8FD75816902096677
:100AA300EF8DF0A4A8F0CF8CF0A428CE8DF0A42E67
:020AB300FE2221
:00000001FF
