:100F2900C2AF12079612082E1210A91211A4120F9D
:100F3900C0D2AF120F781206EA12124E50061209E9
:090F49004D12053A120A5280ED26
:0D11E00032303234333631303031333500A7
:100FE200EF75F00A84F54DEF75F00A8485F04E2214
:100FF200F56AF56BC20BF5732275F00A84F54F2280
:10110000C20CE4F56EF56FF570F571120FF2D212A4
:0311100002119435
:100F7800E4F572F56CF573F56DD20DC20BC20CC2B7
:100F88000EF570F571F56AF56BF56EF56FD2121204
:050F980011940201E6C6
:1006EA007F457D467B471210905018200103121255
:1006FA0068AB47AD46AF45121214121270E4F57298
:10070A0012078D7F487D457B46755049121022504D
:10071A001C200103121268854950AB46AD45AF480B
:10072A0012103F121270757202E412078D7F487D13
:10073A004A1210C2500AAD4AAF48120EA5121270E0
:10074A007F4B121183500C854B3A12110012127012
:10075A001201E61211FA500A7F4C1209D4AD4C125A
:10076A000F9D121257E4336019E5727006300D03BB
:10077A00121276120E45300109300C0612110012BF
:02078A0001E686
:0A078C0022F56C1211001201E622A2
:02053A008F45EB
:10053C001212609211300E05201102C20EE54560B8
:10054C001AE4F56EF56F300C0A121100200107D277
:10055C000E8008200E05AF4512043230010DE4F573
:10056C006EF56F300C30121100802BE53A70028062
:10057C0007200C22301107E4F56EF56F8018056F1B
:10058C00E56F7002056EC39470E56E94174007D248
:10059C000CC212121194300C030206310571E57174
:1005AC0070020570E5727024E56C7020056BE56BCC
:1005BC007002056AC394E8E56A94034016E4F56A90
:1005CC00F56BB20BF573F570F5718007E4F56AF510
:1005DC006BC20BE572B40123E56D20E71EC3E57118
:1005EC009446E57094004013E4F570F571056DE5E3
:1005FC006DD39408402CE4F56D8027E5727023E5EB
:10060C006C701F200B1CC3E571942CE57094014099
:10061C0011E4F570F571E57370047F0180027F00C1
:05062C008F731201E6CE
:0106310022A6
:100432008F4630010BE54630E003020E1402001E27
:10044200E4F570F571E5727003120FF2E54630E0E3
:1004520054E56C6031E572700AE56CC39403500395
:10046200056C22E572B40215E56CC39403500E05C7
:100472006CE56C6403600302052A02052712127000
:10048200E4F56C0212680572E572D394024003E44B
:10049200F572E572B40103E4F56DE57260030205DD
:1004A2002A120FF222E54630E12FE56C700CE5725C
:1004B2006003B40205756C01801FE56C601BE57278
:1004C2007008FDAF6C120B42800FE4FDAF6C120A94
:1004D200CCE56CB4030312052BE54630E226E56C4D
:1004E2007022E5727003B20D22E572B4010DE56D62
:1004F20030E704E4F56D22756D8822E572640270BE
:10050200270211EDE546540C601EE56C601AE57297
:1005120070077D01AF6C020B427D01AF6C120ACCF9
:10052200E56CB4030312052B227431252FF8E6FF84
:080532007D707C17120F5222AC
:1001E600E4F551755201E57264017025E56D547FA1
:1001F600FF9011E09324D0F54DEFA39324D0F54E54
:10020600EFA39324D0F54FEFA39324D0F550020229
:10021600C7E57260030202A5300B25E56C70217FED
:10022600531209D4BFFF0B754F0D754E0D754D0D4D
:100236008006120FE285534F75500B755203803FAF
:10024600E56C6403601EE56C7004E5737016E52AC0
:1002560075F00A84F54DE52A120FEAE540120FFB08
:10026600E5408014E54075F00A84F54DE540120F2F
:10027600EAE53B120FFBE53B75F00A8485F050304A
:100286000B04E56C606FE56C70047F0280027F01F1
:100296008F52E56CB40102804FE56C60588053E5DF
:1002A6007264027050E56CB4031C754D0CE52F04A6
:1002B600F54E754F0D7431252FF8E604F55075513E
:1002C60008E4F552802F7425252FF8E6FF743C25A7
:1002D6002FF8E6FE120FE2EE120FFBEE75F00A841F
:1002E60085F050E56CB401057551038008E56CB4E2
:1002F600020375510C855057855158855259AB4F9D
:07030600AD4EAF4D0210ECFB
:0E11D2003F065B4F666D7D077F6F00397740EB
:10111300D2C2D2C1D2B7D2B622E4F541F542C2045B
:03112300D2AF2226
:1007960075A0FF121113D2C4D2C5D2B5E4F5957572
:1007A60096FF53B11F43B2E053B3C943B4364391E6
:1007B600015392FE759D0175BC80538FFE752A0C00
:1007C600F540F53BF541F542752508F53C75260CD7
:1007D600F53D752710F53EF5317532017533027515
:1007E6003407753A01F52FF539C201F535F536C2EC
:1007F60004752B0A752C0A752D0A752E0AF523F534
:1008060028D200F524F537F538D202F529C203C2FD
:1008160005C28E438E4053890F758BCD758DD4C21C
:080826008FD2BBD2ABD28E22AF
:09124E00200302C322C203D322D3
:09125700200502C322C205D322C6
:0209D400A90771
:1009D60075BC88000000007F887E13E5BC20E4100B
:1009E600EF1F70011E144E70F2A80176FF7FFF22E2
:1009F60053BCEFAFBDEF75F004A4FFE5BE5403FD95
:100A0600EF4DFDACF0ECC4F854F0C868FEEDC454EC
:100A16000F48FFC3ED9FFDEC9EFCC3ED94E6EC94FE
:100A26000050047C007DE6741A2DFD74FF3CFCE446
:100A3600FFC3ED940AEC9400400B74F62DFD74FF91
:0B0A46003CFC0F80ECAE05A801A606EA
:010A51002282
:1010EC00C2AF8F2B8D2C8B2D85572E855823855970
:0410FC0028D2AF2225
:10119400A212920020120812111375A0FFD2C422C9
:0C121400C2AF8F2A8D408B3B12111C22B0
:100B4200C2AFED6033BF010F052AAE2AEEC394187F
:100B5200405AE4F52A8055BF020F0540AE40EEC36D
:100B6200943C4048E4F5408043053BAE3BEEC394E1
:100B72003C4039E4F53B8034BF0110E52A70047E25
:100B8200178004E52A14FE8E2A8021BF0210E54058
:100B920070047F3B8004E54014FF8F40800EE53BEC
:100BA20070047F3B8004E53B14FF8F3B12111C2233
:100ACC00EF6403702AED60147431252FF806E6C329
:100ADC00940340617431252FF8E4F6227431252FEC
:100AEC00F8E6FE70047E028003EE14FEA60622BF1A
:100AFC00010474258002743C252FFEA806ED6017B6
:100B0C00BF010A06E6C39418402BE4F62206E6C39E
:100B1C00943C4021E4F622BF010EE6FF70047F17DF
:100B2C008003EF14FFA60722E6FF70047F3B8003CF
:050B3C00EF14FFA60705
:010B41002291
:10103F0074252FF8A605743C2FF8A603E550C3942A
:0C104F0003500674312FF8A6508F2F229A
:100EA500A8077401088002C333D8FCFEED6004EE88
:100EB500423422EEF45234300407E543B50702C24A
:0C0EC50004300108E539B5070312001ED7
:010ED10022FE
:0D11ED00052FE52FC394034003E4F52F22E6
:020DE000A90761
:100DE200E4FC7E007401A804088005C333CE33CE30
:100DF200D8F9FFEF5534601474252CF8E6B5010CD0
:100E0200743C2CF8E6B505048C2FD3220CBC03D21B
:010E1200C31C
:010E130022BC
:100E4500300419E52AB53014E540B5440FE53BB546
:100E55003F0AC20420011885432F8010200110E5A8
:100E65003B700CAD40AF2A120DE050031200032277
:100E1400C2AF852A30E540240AF544853B3FC3949C
:100E24003C401274C42544F5440530E530C394189D
:100E34004003E4F530853943D204C201D2AF021233
:010E44006845
:10000300E4F535F536852F39D20174312539F8E613
:07001300FFE4FDFC020F52A7
:0312760002115F03
:05001E00C2010212689E
:03001B0002030DD0
:0D030D00C0E0C0F0C083C082C0D075D00831
:10031A0012111375A0FF300056742B2524F8E690AD
:10032A0011D293FD20021B7E007401A824088005C7
:10033A00C333CE33CED8F9FFAC23ECFBEF5B6002BC
:10034A007D00E528B40308E524B40103430D80EDDC
:10035A00F4F5A0E5247004C2C28014E524B40104B3
:10036A00C2C1800BE524B40204C2B78002C2B6053A
:10037A0024E524C3940440037524000538E5387045
:10038A00020537C394F4E5379401400875370075C0
:10039A003800B202200004D2C4801BE528B401044C
:1003AA00C2C48012E528B4020B300203C38001D311
:1003BA0092C48002D2C40542E54270020541AE41B0
:1003CA00C394E8EE9403402C754100754200D205AF
:1003DA00053BAF3BEF943C401B753B000540AF40EB
:1003EA00EF943C400F754000052AAF2AEF9418405D
:1003FA0003752A00120CCE3001150536E536700257
:10040A000535AE35C39430EE9475400312001E05CF
:0D041A0029E529C3940A4005752900D20385
:0B042700D0D0D082D083D0F0D0E032E3
:1011A400D293D294D2955391C75392C7E4F5742243
:10094D00E4FF2093010F20940343070220950343F6
:10095D000704E4FEFDA8057401088002C333D8FC2A
:10096D00FC5574FBEF5CFAB5030474788028747839
:10097D002DF806E6C39403402174782DF8E4F6EAC9
:10098D00600EEC427474752DF8E4F6EC4206800AA4
:10099D00ECF4527474752DF8E4F6ED6021E5745C99
:1009AD00601C74752DF806E6C3943C4011BC04051B
:1009BD004306088003EC420674752DF876300DED74
:0609CD0064037091AF0607
:0109D3002201
:08126000E5746002D322C322F1
:100E7500E564C4540F75F00AA4FFE564540F2FFD13
:100E8500E565C4540F75F00AA4FF22E565540F2FDC
:100E9500FEEDC3941822E56314F55E8D618E5D2227
:101076007D507CC3C2998F9920990BED1D70011C80
:09108600144C70F4C322C299D38A
:01108F00223E
:10112600EF540FD394095009EFC4540F940950019A
:0311360022C322AF
:100FC000E4F568C20AC207C208C206C20975985091
:100FD000438E01438E0475D7E875D6FF438E10D239
:020FE000AC2241
:10102200A807200702C322C2AFA65EA805A661A830
:0D10320003A65DA850A65AC207D2AFD32274
:1010C200A807200802C322C2AFA65FA805A669C26C
:0510D20008D2AFD3229B
:10118300A807200602C322C2AFA662C206D2AFD30B
:011193002239
:0D11FA00200902C322C2AFC209D2AFD32226
:100F9D00AE05AB07C2AC7F051210765013AF03122E
:100FAD001076500CAF0612107650057FAA121076EF
:030FBD00D2AC2291
:10109000A807200A02C322C2AFA667A805A660A8B7
:0910A00003A65BC20AD2AFD32201
:03002300020026B2
:09002600C0E0C0F0C0D075D0109C
:10002F002098030201DAC298AC99E568701AECC304
:10003F00940150030201DAECD3940640030201DA73
:10004F008C5C7568010201DAE55CB4051075680017
:10005F00EC64AA60030201DAD2090201DAE55CB4AA
:10006F0006047F018014E55CB404047F02800BE575
:10007F005CB403047F0480027F03E568D39F500DB7
:10008F00AF6874622FF8A61405680201DA7568006C
:10009F00EC64AA7060E55C6401705AAF63121126BC
:1000AF005053AF64121126504CAF651211265045B4
:1000BF00E563120E87E563540F2FFDE564120E877B
:1000CF00E564540F2FFE120E85E565540F2FFFEDDB
:1000DF00C3941840030201DAEEC3943C40030201BB
:1000EF00DAEFC3943C40030201DA8D678E608F5BB9
:1000FF00D20A0201D7EC64AA7041E55C6402703B3E
:10010F00E563C394014034E563D39403502DAF648A
:10011F001211265026AF65121126501F120E75129E
:10012F000E9040030201DAEEC3943C40030201DA61
:10013F00120E9B755AFFD2070201D7EC64AA704AC0
:10014F00E55C64037044E563C39401403DE563D30C
:10015F0094035036E566C39401402FE566D39403AC
:10016F005028AF641211265021AF65121126501A74
:10017F00120E75120E905053EEC3943C504D120E4A
:10018F009BE56614F55AD207803EEC64AA7025E50C
:10019F005CB40420E563C394014019E563D3940371
:1001AF005012E5649401500CE56314F55F856469A2
:1001BF00D2088014BCAA14E55CB4060FE563D3948F
:1001CF00015008856362D206759906309902C2996B
:0701DF00D0D0D0F0D0E032D7
:100632000308030804080608060804080308020859
:100642000108010802080308030C02040210000456
:100652000308030804080608060804080308020839
:100662000108010802080308020C01040110000637
:10067200070408040908080409080A08080C030406
:100682000704060807040908060C03040404030807
:1006920004040908030C09040904080805080504F0
:1006A2000808080C00040908080407040704030CDE
:1006B20006040708040804080304020803080408DF
:1006C20004080608030803040404030402040004E3
:1006D200004076A0D6B4DB34DF3AE10EE2D0E47318
:0806E200E775EA24EB5FEFA0CD
:0B123800C2AB121220C20FE4F51B2213
:0C122000538FFEC28CC28DC210D2B522CA
:0F11B4001212208F8A8E8CD210D28C438F012280
:100D1A00E51AC39519400385181AAF1A051AEF90F8
:100D2A00063293FBAF1A051AEF93FF7E007C007D13
:100D3A00321211718E1E8F1F121220EB601525E0E0
:100D4A0024D4F582E43406F583E493FE740193FF18
:030D5A001211B4BF
:010D5D002273
:1010A900C2A9C28C5389F0438E80C28D538FFEC270
:0910B90010C20FE4F51BD2B522B0
:100F5200EFC394034002E4FF121238EF9006D293DB
:100F6200F518EFA393F51985181A8C1C8D1DD20F55
:060F7200120D1AD2AB22A1
:10115F00200F0EC2AB751B287FCD7ED41211B4D2D7
:02116F00AB22B1
:08126800121238D2B5D2AB22FC
:100CCE00200F0DE51B6044151BE51B703E02122024
:100CDE00E51D451C6010E51D151D7002151C144503
:100CEE001C7003021268E51F451E601FE51F151FCD
:100CFE007002151EE51F6419451E70063010031292
:0C0D0E001220E51F451E7003120D1A2272
:100DA200EF75F003A42409FE2400F582E43400F573
:100DB200832274012EF582E43400F5832274022E1C
:100DC200F582E43400F583228FC48EC375C65A754A
:0E0DD200C6A522A2AFE433FDC2AF75C78322CF
:0D120700E4F5C7F5C5F5C675C380F5C42232
:06105B00EC2BFFE43AFE5D
:10106100120DD575C501120DCA00AFC2121207EDDE
:0410710024FF92AF17
:011075002258
:10100200A2AFE433F9C2AF75C78375C5028FC48E30
:0F101200C38DC2120DCE00121207E924FF92AF58
:0110210022AC
:10113900120DD575C503120DCA00121207ED24FF51
:0211490092AF63
:01114B002281
:100ED200E4FEFDEDC39F502174002D120DACE062C3
:100EE20006E4FCEE30E70725E06407FE8004EE2509
:0B0EF200E0FE0CBC08ED0D80DAAF063E
:010EFD0022D2
:100C7A00900006E0C39418500EA3E0C3943C5007BA
:100C8A00A3E0C3943C4002C322900003E06010FD3D
:100C9A0054F864A06009ED54F064B06002C322E421
:100CAA00FF120DA2E0C394185012120DB4E0C394BF
:100CBA003C5009120DBFE0C394034002C3220FBF88
:030CCA0003DFD372
:010CCD002204
:060BB200AB07AA06A9052D
:100BB800EB241312105DEF64A56002C322E4FC125B
:100BC800105B74002C120DACEFF00CBC14F190000B
:100BD80000E064437023A3E0644B701DA3E0B401FC
:100BE80018900013E0B4A5117F12120ED2900012D3
:100BF800E0B50705120C7A4002C322900005E0FE1A
:0F0C0800900004E0FDEDFFA801A60608A607D3A3
:010C170022BA
:10114C00C3EF9DFFEE9CFE4F6007C3EE94805001F1
:02115C0022C3AC
:01115E00226E
:0410D700AB07AA06B3
:1010DB00E4FC12105BEFF46002C3220CBC14F3D3DC
:0110EB0022E2
:0B124300EF7003FEFF227E027F0022FE
:100EFE001212438F828E83E4F9AF82AE831210D723
:100F0E005005AF82AE832274142582F582E43583B8
:0A0F1E00F58309B919E37EFF7FFF98
:010F280022A6
:100C1800900006E0F52AA3E0F540A3E0F53B90003C
:100C280003E0FF70047F078004EF5407FF8F3490C0
:100C38000003E0FF54F0FEBEB00CEF30E3047F0188
:100C480080067F0080027F018F3AE4FF120DA2E048
:100C5800FD74252FF8A605120DB4E0FD743C2FF89D
:100C6800A605120DBFE0FD74312FF8A6050FBF03CE
:010C7800DBA0
:010C79002258
:0408C300AD07AC06CB
:1008C7009000007443F0A3744BF0A37401F0E53A71
:1008D70060047F0880027F00EF44B0453490000336
:1008E700F0A3EDF0A3ECF0A2AFE433FFC2AFA3E5B2
:1008F7002AF0A3E540F0A3E53BF0E4FEEE75F00334
:10090700A42409FD74252EF8E6FC74002D120DAC05
:10091700ECF0743C2EF8E6FC74012D120DB7ECF0E8
:1009270074312EF8E6FC74022D120DC2ECF00EBEE7
:1009370003CAEF24FF92AF7F12120ED2900012EF7C
:05094700F0A374A5F00F
:01094C002288
:080D5E008C488D49AB07AA0681
:100D6600E4FCEC2BFFE43AFE74002C120DACE0FD23
:100D76001210020CBC13EBEB2413FFE43AFE7DA524
:100D8600121002AF03AE027D4A120BB2500CE54BB5
:0B0D9600B54907E54AB54802D322C367
:010DA100222F
:0F11C300057EE57EC394034005E4F57EC213224A
:10082E00121207C213E4F57E757BFFF57CF57DF59C
:10083E0047F548F54DF54EF54FF550F545AF4512D8
:10084E0012438E498F4AE4F5467D4BAF4AAE4912AC
:10085E000BB25023E547600DAD50AC4FAF4CAE4BD5
:10086E0012114C501275470185454885494D854AF0
:10087E004E854B4F854C507414254AF54AE4354944
:10088E00F5490546E546C3941940BE0545E545C301
:10089E00940240A9E547601C7D4BAF4EAE4D120B46
:1008AE00B25011120C1885487BE5502401F57DE4F9
:0408BE00354FF57C41
:0108C2002213
:06127000E4F57ED213221A
:100A5200301376E57BC39402500BAF7B120EFE8EF1
:100A6200468F47800674FFF546F547E547F4700365
:100A7200E546F4701DE57B70047F0180027F008FE4
:100A820045121243121139AF45120EFE8E468F47A0
:100A92008003857B45E547B4FF07E546B4FF028046
:100AA20025AF7DAE7C1208C3AD7DAC7CAF47AE46B0
:100AB200120D5E501185457B057DE57D7002057C3A
:090AC200E4F57EC213221211C3F7
:010ACB002208
:0300000002122CBD
:0C122C00787FE4F6D8FD75817E020F2962
:10117100EF8DF0A4A8F0CF8CF0A428CE8DF0A42E92
:02118100FE224C
:00000001FF
