:100CFE00C2AF120609120574120E12120ED1120D87
:100D0E00C2D2AF120EB0120913120F6250061207A2
:090D1E002612069A1207AD80EDC1
:0D0F0D00323032343336313030313335007C
:100C7B00F51AF51FC204F51CF51DF518F5192275AB
:100C8B00F00A8485F0432275F00A84F54222F518A8
:0C0C9B00F519C2042275F00A84F5442209
:100EB000E4F51EF51AF51FF51BD205120C7F020290
:010EC0009899
:100913007F3D7D3E7B3F120DF9501B200003120FDC
:1009230074AB3FAD3EAF3D120EC1120F7CE4F51E1A
:10093300120C7B1202987F407D3D7B3E7545411230
:100943000D6D501F200003120F74854145AB3EAD62
:100953003DAF40120D8A120F7C751E02E4120C7B10
:10096300120298120F6BE433601AE51E700630050D
:1009730003120018E536700CAD3AAF29120DA650DC
:0409830003120E3F0E
:01098700224D
:10069A00EF60031203B0051DE51D7002051CE51E7F
:1006AA007024E51A70200519E51970020518C3941B
:1006BA00E8E51894034013E4F518F519B204F51F98
:1006CA00F51CF51D8004E4120C99E51EB40123E51E
:1006DA001B20E71EC3E51D9446E51C94004013E465
:1006EA00F51CF51D051BE51BD39408402CE4F51BEE
:1006FA008027E51E7023E51A701F20041CC3E51D20
:10070A00942CE51C94014011E4F51CF51DE51F70BD
:0C071A00047F0180027F008F1F02029804
:1003B0008F3D30000302001EE4F51CF51DE51E70A4
:1003C00005120C99F51FE53D30E056E51A6031E560
:1003D0001E700AE51AC394035003051A22E51EB4E1
:1003E0000215E51AC39403500E051AE51A6403605A
:1003F000030204A40204A1120F7CE4F51A020F7494
:10040000051EE51ED394024003E4F51EE51EB4016B
:1004100003E4F51BE51E60030204A4120C99F51F0A
:1004200022E53D30E12FE51A700CE51E6003B402B1
:1004300005751A01801FE51A601BE51E7008FDAFE7
:100440001A120988800FE4FDAF1A120827E51AB4C2
:1004500003031204A5E53D30E226E51A7022E51EED
:100460007003B20522E51EB4010DE51B30E704E47C
:10047000F51B22751B8822E51E64027027020F1AE5
:10048000E53D540C601EE51A601AE51E70077D01FB
:10049000AF1A0209887D01AF1A120827E51AB403C2
:1004A000031204A522742F252EF8E6FF7D707C1719
:0404B000120D2722E0
:10029800E4F5467F01E51E64017027E51B547FFFE6
:1002A800900F0D9324D0F542EFA39324D0F543EF9C
:1002B800A39324D0F544EFA39324D0F545E4FF029B
:1002C800039FE51E707730041BE51A70177F4712ED
:1002D8000A62EF120C92EF120C8A85474475450B9F
:1002E8007F038039E51A6403601BE51A7004E51F73
:1002F8007013E529120C92E529120C8AE53A120CC2
:10030800A0E53A8011E53A120C92E53A120C8AE51A
:1003180036120CA0E53675F00A8485F045300404E1
:10032800E51A6073E51A70047E0280027E01AF064A
:10033800E51AB401028053E51A605C8057E51E6433
:10034800027054E51AB4031B75420CE52E04F543FC
:1003580075440D742F252EF8E604F545754608E416
:10036800FF80347424252EF8E6FE7437252EF8E62F
:10037800FDEE120C92EE120C8AED120CA0ED75F047
:100388000A8485F045E51AB401057546038008E539
:100398001AB4020375460C85454B85464C8F4DAB08
:0803A80044AD43AF42020E2BED
:0E0EFF003F065B4F666D7D077F6F00397740C1
:1006090075A0FFD2C2D2C1D2B7D2B6D2C4D2C5D296
:10061900B5E4F5957596FF53B11F43B2E053B3C9DD
:1006290043B4364391015392FE759D0175BC8053C5
:100639008FFE75290CF53AF536F53BF53C7524081E
:10064900F53775250CF538752610F539F52F753000
:1006590001753102F52EC200F532F533752A0A7596
:100669002B0A752C0A752D0AF522F527F523F53481
:10067900F535D201F528C202C203C28E438E40531A
:10068900890F758BCD758DD4C28FD2BBD2ABD28E6B
:01069900223E
:090F6200200202C322C202D322C4
:090F6B00200302C322C203D322B9
:020A6200A907E2
:100A640075BC88E5BC30E4FB53BCEFAFBDEF75F05B
:100A740004A4FFADBEEF4DFDACF0ECC4F854F0C8D7
:100A840068FEEDC4540F48FFC3ED9FFDEC9EFCC30C
:100A9400ED94E6EC940050047C007DE6741A2DFD80
:100AA40074FF3CFCE4FFC3ED940AEC9400400B7427
:100AB400F62DFD74FF3CFC0F80ECAE05A801A606E4
:010AC400220F
:100E2B00C2AF8F2A8D2B8B2C854B2D854C22854D5C
:040E3B0027D2AF22E9
:100EC100C2AF8F298D3A8B36E4F53BF53CD2AF2288
:10098800C2AFED6033BF010F0529AE29EEC394183D
:10099800405AE4F5298055BF020F053AAE3AEEC336
:1009A800943C4048E4F53A80430536AE36EEC394AD
:1009B8003C4039E4F5368034BF0110E52970047EE7
:1009C800178004E52914FE8E298021BF0210E53A1C
:1009D80070047F3B8004E53A14FF8F3A800EE536B9
:1009E80070047F3B8004E53614FF8F36E4F53BF551
:0409F8003CD2AF221C
:10082700EF6403702AED6014742F252EF806E6C3D3
:1008370094034061742F252EF8E4F622742F252E99
:10084700F8E6FE70047E028003EE14FEA60622BFC1
:100857000104742480027437252EFEA806ED601764
:10086700BF010A06E6C39418402BE4F62206E6C346
:10087700943C4021E4F622BF010EE6FF70047F1787
:100887008003EF14FFA60722E6FF70047F3B800377
:05089700EF14FFA607AD
:01089C002239
:100D8A0074242FF8A60574372FF8A603E545C394F3
:0C0D9A00035006742F2FF8A6458F2E2260
:0D0F1A00052EE52EC394034003E4F52E22BE
:100DA600E4FE74242EF8E6B5070C74372EF8E6B583
:0B0DB60005048E2ED3220EBE03E8C3FE
:010DC100220F
:100E3F00E4F532F533D200742F252EF8E6FFE4FDEA
:040E4F00FC020D276D
:03001800020E8C49
:05001E00C200020F7496
:03001B0002017867
:0D017800C0E0C0F0C083C082C0D075D008C8
:10018500D2C2D2C1D2B7D2B675A0FF742A2523F840
:10019500E6900EFF93FD20011B7E007401A8230845
:1001A5008005C333CE33CED8F9FFAC22ECFBEF5B31
:1001B50060027D00E527B40308E523B40103430D80
:1001C50080EDF4F5A0E5237004C2C28014E523B4E4
:1001D5000104C2C1800BE523B40204C2B78002C288
:1001E500B60523E523C3940440037523000535E5CF
:1001F5003570020534C394F4E53494014008753430
:1002050000753500B201E527B40104C2C48012E5CA
:1002150027B4020B300103C38001D392C48002D2FC
:10022500C4053CE53C7002053BAE3BC394E8EE9447
:1002350003402C753B00753C00D2030536AF36EF05
:10024500943C401B753600053AAF3AEF943C400F9D
:10025500753A000529AF29EF941840037529001256
:100265000AC53000150533E53370020532AE32C3D9
:100275009430EE9475400312001E0528E528C394BA
:080285000A4005752800D202B1
:0B028D00D0D0D082D083D0F0D0E0327F
:100ED100D293D294D2955391C75392C7E4F563222A
:10072600E4FF2093010F209403430702209503431F
:100736000704E4FEFDA8057401088002C333D8FC53
:10074600FC5563FBEF5CFAB5030474678028746795
:100756002DF806E6C39403402174672DF8E4F6EA03
:10076600600EEC426374642DF8E4F6EC4206800AEF
:10077600ECF4526374642DF8E4F6ED6021E5635CF5
:10078600601C74642DF806E6C3943C4011BC040555
:100796004306088003EC420674642DF876300DEDAE
:0607A60064037091AF0630
:0107AC00222A
:100C4B00E556C4540F75F00AA4FFE556540F2FFD5B
:100C5B00E557C4540F75F00AA4FF22E557540F2F24
:100C6B00FEEDC3941822E55514F5528D548E512286
:100E5300EF540FD394095009EFC4540F9409500170
:030E630022C32285
:100DC200E4F55AC207C206759850438E01438E0459
:0C0DD20075D7E875D6FF438E10D2AC2216
:100D6D00A807200602C322C2AFA652A805A654A802
:0D0D7D0003A651A845A64EC206D2AFD32250
:100DF900A807200702C322C2AFA659A805A653A86F
:090E090003A64FC207D2AFD322A9
:03002300020026B2
:09002600C0E0C0F0C0D075D0109C
:10002F0020980302016CC298AC99E55A701AECC380
:10003F009401500302016CECD39403400302016C52
:10004F008C50755A0102016CE550B403047F048093
:10005F00027F03E55AD39F500DAF5A74542FF8A661
:10006F0014055A02016C755A00EC64AA7060E550D1
:10007F006401705AAF55120E535053AF56120E53B0
:10008F00504CAF57120E535045E555120C5DE555C8
:10009F00540F2FFDE556120C5DE556540F2FFE122F
:1000AF000C5BE557540F2FFFEDC39418400302016B
:1000BF006CEEC3943C400302016CEFC3943C4003CD
:1000CF0002016C8D598E538F4FD207020169EC6478
:1000DF00AA703AE55064027034E555C39401402D7F
:1000EF00E555D394035026AF56120E53501FAF57FA
:1000FF00120E535018120C4B120C665060EEC39434
:10010F003C505A120C71754EFFD206804DEC64AA0A
:10011F00704BE55064037045E555C39401403EE5CF
:10012F0055D394035037E558C394014030E558D365
:10013F0094035029AF56120E535022AF57120E533D
:10014F00501B120C4B120C665013EEC3943C500D07
:10015F00120C71E55814F54ED206759906309902B6
:02016F00C29933
:07017100D0D0D0F0D0E03245
:1004B40003080308040806080608040803080208D9
:1004C4000108010802080308030C020402100004D6
:1004D40003080308040806080608040803080208B9
:1004E4000108010802080308020C010401100006B7
:1004F400070408040908080409080A08080C030486
:100504000704060807040908060C03040404030886
:1005140004040908030C090409040808050805046F
:100524000808080C00040706060603060206060669
:100534000706060C07060206030606060712070648
:1005440006060306020606060706060C070602064A
:100554000306060607120004004076A8D6B4DB346E
:10056400DF3AE10EE2D0E473E775EA24EB5FEFA033
:0B0F4C00C2AB120F34C208E4F55E22B5
:0C0F3400538FFEC28CC28DC209D2B522C0
:0F0EE100120F348F8A8E8CD209D28C438F01224C
:100B1100E55DC3955C4003855B5DAF5D055DEF9071
:100B210004B493FBAF5D055DEF93FF7E007C007D18
:100B310032120E9E8E618F62120F34EB601525E02A
:100B4100245EF582E43405F583E493FE740193FF9A
:030B5100120EE1A0
:010B5400227E
:100E1200C2A9C28C5389F0438E80C28D538FFEC209
:090E220009C208E4F55ED2B52214
:100D2700EFC394034002E4FF120F4CEF90055C936E
:100D3700F55BEFA393F55C855B5D8C5F8D60D208F7
:060D4700120B11D2AB22D9
:100E8C0020080EC2AB755E287FCD7ED4120EE1D247
:020E9C00AB2287
:080F7400120F4CD2B5D2AB22E2
:100AC50020080DE55E6044155EE55E703E020F345C
:100AD500E560455F6010E56015607002155F1445BF
:100AE5005F7003020F74E5624561601FE562156280
:100AF50070021561E56264194561700630090312DB
:0C0B05000F34E56245617003120B1122F1
:100BD700EF75F003A42409FE2400F582E43400F540
:100BE700832274012EF582E43400F5832274022EE9
:100BF700F582E43400F583228FC48EC375C65A7517
:0E0C0700C6A522A2AFE433FDC2AF75C783229B
:0D0F2700E4F5C7F5C5F5C675C380F5C42215
:060DDE00EC2BFFE43AFEDD
:100DE400120C0A75C501120BFF00AFC2120F27EDDA
:040DF40024FF92AF97
:010DF80022D8
:100D4D00A2AFE433F9C2AF75C78375C5028FC48EE8
:0F0D5D00C38DC2120C0300120F27E924FF92AFBF
:010D6C002264
:100E6600120C0A75C503120BFF00120F27ED24FFA3
:020E760092AF39
:010E78002257
:100CA700E4FEFDEDC39F502174002D120BE1E062BD
:100CB70006E4FCEE30E70725E06407FE8004EE2536
:0B0CC700E0FE0CBC08ED0D80DAAF066B
:010CD20022FF
:100B9900900006E0C39418500EA3E0C3943C50079C
:100BA900A3E0C3943C4002C322E4FF120BD7E0C385
:100BB90094185012120BE9E0C3943C5009120BF43B
:0D0BC900E0C394034002C3220FBF03DFD33B
:010BD60022FC
:0609FC00AB07AA06A905E5
:100A0200EB2413120DE0EF64A56002C322E4FC1292
:100A12000DDE74002C120BE1EFF00CBC14F190000F
:100A220000E064437023A3E0644B701DA3E0B401B3
:100A320018900013E0B4A5117F12120CA7900012B7
:100A4200E0B50705120B994002C322900005E0FEB3
:0F0A5200900004E0FDEDFFA801A60608A607D35B
:010A61002272
:100E7900C3EF9DFFEE9CFE4F6007C3EE94805001C7
:020E890022C382
:010E8B002244
:04000300AB07AA0697
:10000700E4FC120DDEEFF46002C3220CBC14F3D340
:0100170022C6
:0B0F5700EF7003FEFF227E027F0022ED
:100CD300120F578F828E83E4F9AF82AE8312000323
:100CE3005005AF82AE832274142582F582E43583E6
:0A0CF300F58309B919E37EFF7FFFC6
:010CFD0022D4
:100C1500900006E0F529A3E0F53AA3E0F536E4FFF8
:100C2500120BD7E0FD74242FF8A605120BE9E0FDA1
:100C350074372FF8A605120BF4E0FD742F2FF8A6D4
:050C4500050FBF03DBF9
:010C4A002287
:10089D009000007443F0A3744BF0A37401F0E4A333
:1008AD00F0A3EFF0A3EEF0A2AFE433FFC2AFA3E5E8
:1008BD0029F0A3E53AF0A3E536F0E4FEEE75F0037A
:1008CD00A42409FD74242EF8E6FC74002D120BE10E
:1008DD00ECF074372EF8E6FC74012D120BECECF0F5
:1008ED00742F2EF8E6FC74022D120BF7ECF00EBEF1
:1008FD0003CAEF24FF92AF7F12120CA7900012EFE4
:05090D00F0A374A5F049
:0109120022C2
:080B55008C408D41AB07AA069C
:100B5D00E4FCEC2BFFE43AFE74002C120BE1E0FDFB
:100B6D00120D4D0CBC13EBEB2413FFE43AFE7DA5E7
:100B7D00120D4DAF03AE027D421209FC500CE54340
:0B0B8D00B54107E542B54002D322C38A
:010B9800223A
:0F0EF000056DE56DC394034005E4F56DC20A225C
:10057400120F27C20AE4F56D756AFFF56BF56CF589
:100584003FF540F545F546F547F548F53DAF3D12D5
:100594000F578E418F42E4F53E7D43AF42AE411288
:1005A40009FC5023E53F600DAD48AC47AF44AE4372
:1005B400120E795012753F01853D408541458542B3
:1005C4004685434785444874142542F542E4354141
:1005D400F541053EE53EC3941940BE053DE53DC3E6
:1005E400940240A9E53F601C7D43AF46AE45120925
:1005F400FC5011120C1585406AE5482401F56CE4A1
:040604003547F56B16
:0106080022CF
:060F7C00E4F56DD20A222B
:1007AD00300A76E56AC39402500BAF6A120CD38EF1
:1007BD003E8F3F800674FFF53EF53FE53FF4700335
:1007CD00E53EF4701DE56A70047F0180027F008FA5
:1007DD003D120F57120E66AF3D120CD38E3E8F3F5A
:1007ED008003856A3DE53FB4FF07E53EB4FF028017
:1007FD0025AF6CAE6B12089DAD6CAC6BAF3FAE3ED2
:10080D00120B555011853D6A056CE56C7002056B38
:09081D00E4F56DC20A22120EF08E
:0108260022AF
:03000000020F40AC
:0C0F4000787FE4F6D8FD75816D020CFE90
:100E9E00EF8DF0A4A8F0CF8CF0A428CE8DF0A42E68
:020EAE00FE2222
:00000001FF
